{
  "contractName": "Bid",
  "abi": [
    {
      "inputs": [],
      "stateMutability": "nonpayable",
      "type": "constructor"
    },
    {
      "inputs": [
        {
          "internalType": "address",
          "name": "solsMarketplace",
          "type": "address"
        }
      ],
      "name": "setSolsMarketplaceToBid",
      "outputs": [],
      "stateMutability": "nonpayable",
      "type": "function"
    },
    {
      "inputs": [
        {
          "internalType": "uint256",
          "name": "nft_id",
          "type": "uint256"
        },
        {
          "internalType": "address",
          "name": "_from",
          "type": "address"
        },
        {
          "internalType": "address",
          "name": "_to",
          "type": "address"
        },
        {
          "internalType": "uint256",
          "name": "_amount",
          "type": "uint256"
        },
        {
          "internalType": "uint256",
          "name": "_price",
          "type": "uint256"
        }
      ],
      "name": "place",
      "outputs": [],
      "stateMutability": "nonpayable",
      "type": "function"
    },
    {
      "inputs": [
        {
          "internalType": "uint256",
          "name": "bid_id",
          "type": "uint256"
        }
      ],
      "name": "accept",
      "outputs": [],
      "stateMutability": "nonpayable",
      "type": "function"
    },
    {
      "inputs": [
        {
          "internalType": "uint256",
          "name": "bid_id",
          "type": "uint256"
        }
      ],
      "name": "denyBid",
      "outputs": [],
      "stateMutability": "nonpayable",
      "type": "function"
    },
    {
      "inputs": [
        {
          "internalType": "uint256",
          "name": "bid_id",
          "type": "uint256"
        },
        {
          "internalType": "uint256",
          "name": "balanceOfCreator",
          "type": "uint256"
        }
      ],
      "name": "autoCheck",
      "outputs": [],
      "stateMutability": "nonpayable",
      "type": "function"
    },
    {
      "inputs": [
        {
          "internalType": "uint256",
          "name": "bid_id",
          "type": "uint256"
        }
      ],
      "name": "fetchBid",
      "outputs": [
        {
          "components": [
            {
              "internalType": "uint256",
              "name": "bid_id",
              "type": "uint256"
            },
            {
              "internalType": "uint256",
              "name": "nft_id",
              "type": "uint256"
            },
            {
              "internalType": "address",
              "name": "from",
              "type": "address"
            },
            {
              "internalType": "address",
              "name": "to",
              "type": "address"
            },
            {
              "internalType": "uint256",
              "name": "amount",
              "type": "uint256"
            },
            {
              "internalType": "uint256",
              "name": "price",
              "type": "uint256"
            },
            {
              "internalType": "enum Bid.BidStatus",
              "name": "status",
              "type": "uint8"
            },
            {
              "internalType": "uint256",
              "name": "placed_at",
              "type": "uint256"
            },
            {
              "internalType": "uint256",
              "name": "checked_at",
              "type": "uint256"
            }
          ],
          "internalType": "struct Bid.bid",
          "name": "",
          "type": "tuple"
        }
      ],
      "stateMutability": "view",
      "type": "function",
      "constant": true
    },
    {
      "inputs": [
        {
          "internalType": "uint256",
          "name": "bid_id",
          "type": "uint256"
        }
      ],
      "name": "isPending",
      "outputs": [
        {
          "internalType": "bool",
          "name": "",
          "type": "bool"
        }
      ],
      "stateMutability": "view",
      "type": "function",
      "constant": true
    },
    {
      "inputs": [
        {
          "internalType": "address",
          "name": "_owner",
          "type": "address"
        }
      ],
      "name": "fetchBidsByOwner",
      "outputs": [
        {
          "components": [
            {
              "internalType": "uint256",
              "name": "bid_id",
              "type": "uint256"
            },
            {
              "internalType": "uint256",
              "name": "nft_id",
              "type": "uint256"
            },
            {
              "internalType": "address",
              "name": "from",
              "type": "address"
            },
            {
              "internalType": "address",
              "name": "to",
              "type": "address"
            },
            {
              "internalType": "uint256",
              "name": "amount",
              "type": "uint256"
            },
            {
              "internalType": "uint256",
              "name": "price",
              "type": "uint256"
            },
            {
              "internalType": "enum Bid.BidStatus",
              "name": "status",
              "type": "uint8"
            },
            {
              "internalType": "uint256",
              "name": "placed_at",
              "type": "uint256"
            },
            {
              "internalType": "uint256",
              "name": "checked_at",
              "type": "uint256"
            }
          ],
          "internalType": "struct Bid.bid[]",
          "name": "",
          "type": "tuple[]"
        }
      ],
      "stateMutability": "view",
      "type": "function",
      "constant": true
    },
    {
      "inputs": [
        {
          "internalType": "address",
          "name": "_bidder",
          "type": "address"
        }
      ],
      "name": "fetchOrdersByBidder",
      "outputs": [
        {
          "components": [
            {
              "internalType": "uint256",
              "name": "bid_id",
              "type": "uint256"
            },
            {
              "internalType": "uint256",
              "name": "nft_id",
              "type": "uint256"
            },
            {
              "internalType": "address",
              "name": "from",
              "type": "address"
            },
            {
              "internalType": "address",
              "name": "to",
              "type": "address"
            },
            {
              "internalType": "uint256",
              "name": "amount",
              "type": "uint256"
            },
            {
              "internalType": "uint256",
              "name": "price",
              "type": "uint256"
            },
            {
              "internalType": "enum Bid.BidStatus",
              "name": "status",
              "type": "uint8"
            },
            {
              "internalType": "uint256",
              "name": "placed_at",
              "type": "uint256"
            },
            {
              "internalType": "uint256",
              "name": "checked_at",
              "type": "uint256"
            }
          ],
          "internalType": "struct Bid.bid[]",
          "name": "",
          "type": "tuple[]"
        }
      ],
      "stateMutability": "view",
      "type": "function",
      "constant": true
    }
  ],
  "bytecode": "0x60806040526000600160006101000a81548173ffffffffffffffffffffffffffffffffffffffff021916908373ffffffffffffffffffffffffffffffffffffffff16021790555034801561005257600080fd5b50611a88806100626000396000f3fe608060405234801561001057600080fd5b50600436106100935760003560e01c806371ec52f31161006657806371ec52f3146101085780638052af0b146101385780639a6f5cb314610154578063ca8836d214610184578063facdcd56146101b457610093565b806301b69bb41461009857806319b05f49146100b457806322cf76f8146100d05780633a971d56146100ec575b600080fd5b6100b260048036038101906100ad91906112fd565b6101e4565b005b6100ce60048036038101906100c99190611360565b6102b9565b005b6100ea60048036038101906100e5919061138d565b6103f3565b005b61010660048036038101906101019190611360565b61062e565b005b610122600480360381019061011d91906112fd565b61077b565b60405161012f9190611604565b60405180910390f35b610152600480360381019061014d9190611626565b610a86565b005b61016e600480360381019061016991906112fd565b610c91565b60405161017b9190611604565b60405180910390f35b61019e60048036038101906101999190611360565b610f9c565b6040516101ab9190611681565b60405180910390f35b6101ce60048036038101906101c99190611360565b61104e565b6040516101db9190611753565b60405180910390f35b600073ffffffffffffffffffffffffffffffffffffffff16600160009054906101000a900473ffffffffffffffffffffffffffffffffffffffff1673ffffffffffffffffffffffffffffffffffffffff1614610275576040517f08c379a000000000000000000000000000000000000000000000000000000000815260040161026c906117f2565b60405180910390fd5b80600160006101000a81548173ffffffffffffffffffffffffffffffffffffffff021916908373ffffffffffffffffffffffffffffffffffffffff16021790555050565b80806102c560006111ec565b11610305576040517f08c379a00000000000000000000000000000000000000000000000000000000081526004016102fc9061185e565b60405180910390fd5b3373ffffffffffffffffffffffffffffffffffffffff16600160009054906101000a900473ffffffffffffffffffffffffffffffffffffffff1673ffffffffffffffffffffffffffffffffffffffff1614610395576040517f08c379a000000000000000000000000000000000000000000000000000000000815260040161038c906118f0565b60405180910390fd5b60016002600084815260200190815260200160002060060160006101000a81548160ff021916908360028111156103cf576103ce611452565b5b02179055504260026000848152602001908152602001600020600801819055505050565b3373ffffffffffffffffffffffffffffffffffffffff16600160009054906101000a900473ffffffffffffffffffffffffffffffffffffffff1673ffffffffffffffffffffffffffffffffffffffff1614610483576040517f08c379a000000000000000000000000000000000000000000000000000000000815260040161047a906118f0565b60405180910390fd5b600061048f60006111ec565b9050806002600083815260200190815260200160002060000181905550856002600083815260200190815260200160002060010181905550846002600083815260200190815260200160002060020160006101000a81548173ffffffffffffffffffffffffffffffffffffffff021916908373ffffffffffffffffffffffffffffffffffffffff160217905550836002600083815260200190815260200160002060030160006101000a81548173ffffffffffffffffffffffffffffffffffffffff021916908373ffffffffffffffffffffffffffffffffffffffff16021790555082600260008381526020019081526020016000206004018190555081600260008381526020019081526020016000206005018190555042600260008381526020019081526020016000206007018190555042600260008381526020019081526020016000206008018190555060006002600083815260200190815260200160002060060160006101000a81548160ff0219169083600281111561061757610616611452565b5b021790555061062660006111fa565b505050505050565b808061063a60006111ec565b1161067a576040517f08c379a00000000000000000000000000000000000000000000000000000000081526004016106719061185e565b60405180910390fd5b3373ffffffffffffffffffffffffffffffffffffffff166002600084815260200190815260200160002060020160009054906101000a900473ffffffffffffffffffffffffffffffffffffffff1673ffffffffffffffffffffffffffffffffffffffff161461071e576040517f08c379a00000000000000000000000000000000000000000000000000000000081526004016107159061195c565b60405180910390fd5b600280600084815260200190815260200160002060060160006101000a81548160ff0219169083600281111561075757610756611452565b5b02179055504260026000848152602001908152602001600020600801819055505050565b60606000805b61078b60006111ec565b81101561081e578373ffffffffffffffffffffffffffffffffffffffff166002600083815260200190815260200160002060020160009054906101000a900473ffffffffffffffffffffffffffffffffffffffff1673ffffffffffffffffffffffffffffffffffffffff16141561080b578180610807906119ab565b9250505b8080610816906119ab565b915050610781565b5060008167ffffffffffffffff81111561083b5761083a6119f4565b5b60405190808252806020026020018201604052801561087457816020015b610861611210565b8152602001906001900390816108595790505b5090506000915060005b61088860006111ec565b811015610a7b578473ffffffffffffffffffffffffffffffffffffffff166002600083815260200190815260200160002060020160009054906101000a900473ffffffffffffffffffffffffffffffffffffffff1673ffffffffffffffffffffffffffffffffffffffff161415610a6857600260008281526020019081526020016000206040518061012001604052908160008201548152602001600182015481526020016002820160009054906101000a900473ffffffffffffffffffffffffffffffffffffffff1673ffffffffffffffffffffffffffffffffffffffff1673ffffffffffffffffffffffffffffffffffffffff1681526020016003820160009054906101000a900473ffffffffffffffffffffffffffffffffffffffff1673ffffffffffffffffffffffffffffffffffffffff1673ffffffffffffffffffffffffffffffffffffffff16815260200160048201548152602001600582015481526020016006820160009054906101000a900460ff166002811115610a1157610a10611452565b5b6002811115610a2357610a22611452565b5b815260200160078201548152602001600882015481525050828481518110610a4e57610a4d611a23565b5b60200260200101819052508280610a64906119ab565b9350505b8080610a73906119ab565b91505061087e565b508092505050919050565b8180610a9260006111ec565b11610ad2576040517f08c379a0000000000000000000000000000000000000000000000000000000008152600401610ac99061185e565b60405180910390fd5b3373ffffffffffffffffffffffffffffffffffffffff16600160009054906101000a900473ffffffffffffffffffffffffffffffffffffffff1673ffffffffffffffffffffffffffffffffffffffff1614610b62576040517f08c379a0000000000000000000000000000000000000000000000000000000008152600401610b59906118f0565b60405180910390fd5b60005b610b6f60006111ec565b811015610c8b57826002600083815260200190815260200160002060040154118015610be2575060006002811115610baa57610ba9611452565b5b6002600083815260200190815260200160002060060160009054906101000a900460ff166002811115610be057610bdf611452565b5b145b8015610c19575060026000858152602001908152602001600020600101546002600083815260200190815260200160002060010154145b15610c7857600280600083815260200190815260200160002060060160006101000a81548160ff02191690836002811115610c5757610c56611452565b5b02179055504260026000838152602001908152602001600020600801819055505b8080610c83906119ab565b915050610b65565b50505050565b60606000805b610ca160006111ec565b811015610d34578373ffffffffffffffffffffffffffffffffffffffff166002600083815260200190815260200160002060030160009054906101000a900473ffffffffffffffffffffffffffffffffffffffff1673ffffffffffffffffffffffffffffffffffffffff161415610d21578180610d1d906119ab565b9250505b8080610d2c906119ab565b915050610c97565b5060008167ffffffffffffffff811115610d5157610d506119f4565b5b604051908082528060200260200182016040528015610d8a57816020015b610d77611210565b815260200190600190039081610d6f5790505b5090506000915060005b610d9e60006111ec565b811015610f91578473ffffffffffffffffffffffffffffffffffffffff166002600083815260200190815260200160002060030160009054906101000a900473ffffffffffffffffffffffffffffffffffffffff1673ffffffffffffffffffffffffffffffffffffffff161415610f7e57600260008281526020019081526020016000206040518061012001604052908160008201548152602001600182015481526020016002820160009054906101000a900473ffffffffffffffffffffffffffffffffffffffff1673ffffffffffffffffffffffffffffffffffffffff1673ffffffffffffffffffffffffffffffffffffffff1681526020016003820160009054906101000a900473ffffffffffffffffffffffffffffffffffffffff1673ffffffffffffffffffffffffffffffffffffffff1673ffffffffffffffffffffffffffffffffffffffff16815260200160048201548152602001600582015481526020016006820160009054906101000a900460ff166002811115610f2757610f26611452565b5b6002811115610f3957610f38611452565b5b815260200160078201548152602001600882015481525050828481518110610f6457610f63611a23565b5b60200260200101819052508280610f7a906119ab565b9350505b8080610f89906119ab565b915050610d94565b508092505050919050565b60008180610faa60006111ec565b11610fea576040517f08c379a0000000000000000000000000000000000000000000000000000000008152600401610fe19061185e565b60405180910390fd5b60006002811115610ffe57610ffd611452565b5b6002600085815260200190815260200160002060060160009054906101000a900460ff16600281111561103457611033611452565b5b14156110435760019150611048565b600091505b50919050565b611056611210565b818061106260006111ec565b116110a2576040517f08c379a00000000000000000000000000000000000000000000000000000000081526004016110999061185e565b60405180910390fd5b600260008481526020019081526020016000206040518061012001604052908160008201548152602001600182015481526020016002820160009054906101000a900473ffffffffffffffffffffffffffffffffffffffff1673ffffffffffffffffffffffffffffffffffffffff1673ffffffffffffffffffffffffffffffffffffffff1681526020016003820160009054906101000a900473ffffffffffffffffffffffffffffffffffffffff1673ffffffffffffffffffffffffffffffffffffffff1673ffffffffffffffffffffffffffffffffffffffff16815260200160048201548152602001600582015481526020016006820160009054906101000a900460ff1660028111156111ba576111b9611452565b5b60028111156111cc576111cb611452565b5b815260200160078201548152602001600882015481525050915050919050565b600081600001549050919050565b6001816000016000828254019250508190555050565b6040518061012001604052806000815260200160008152602001600073ffffffffffffffffffffffffffffffffffffffff168152602001600073ffffffffffffffffffffffffffffffffffffffff16815260200160008152602001600081526020016000600281111561128657611285611452565b5b815260200160008152602001600081525090565b600080fd5b600073ffffffffffffffffffffffffffffffffffffffff82169050919050565b60006112ca8261129f565b9050919050565b6112da816112bf565b81146112e557600080fd5b50565b6000813590506112f7816112d1565b92915050565b6000602082840312156113135761131261129a565b5b6000611321848285016112e8565b91505092915050565b6000819050919050565b61133d8161132a565b811461134857600080fd5b50565b60008135905061135a81611334565b92915050565b6000602082840312156113765761137561129a565b5b60006113848482850161134b565b91505092915050565b600080600080600060a086880312156113a9576113a861129a565b5b60006113b78882890161134b565b95505060206113c8888289016112e8565b94505060406113d9888289016112e8565b93505060606113ea8882890161134b565b92505060806113fb8882890161134b565b9150509295509295909350565b600081519050919050565b600082825260208201905092915050565b6000819050602082019050919050565b61143d8161132a565b82525050565b61144c816112bf565b82525050565b7f4e487b7100000000000000000000000000000000000000000000000000000000600052602160045260246000fd5b6003811061149257611491611452565b5b50565b60008190506114a382611481565b919050565b60006114b382611495565b9050919050565b6114c3816114a8565b82525050565b610120820160008201516114e06000850182611434565b5060208201516114f36020850182611434565b5060408201516115066040850182611443565b5060608201516115196060850182611443565b50608082015161152c6080850182611434565b5060a082015161153f60a0850182611434565b5060c082015161155260c08501826114ba565b5060e082015161156560e0850182611434565b5061010082015161157a610100850182611434565b50505050565b600061158c83836114c9565b6101208301905092915050565b6000602082019050919050565b60006115b182611408565b6115bb8185611413565b93506115c683611424565b8060005b838110156115f75781516115de8882611580565b97506115e983611599565b9250506001810190506115ca565b5085935050505092915050565b6000602082019050818103600083015261161e81846115a6565b905092915050565b6000806040838503121561163d5761163c61129a565b5b600061164b8582860161134b565b925050602061165c8582860161134b565b9150509250929050565b60008115159050919050565b61167b81611666565b82525050565b60006020820190506116966000830184611672565b92915050565b610120820160008201516116b36000850182611434565b5060208201516116c66020850182611434565b5060408201516116d96040850182611443565b5060608201516116ec6060850182611443565b5060808201516116ff6080850182611434565b5060a082015161171260a0850182611434565b5060c082015161172560c08501826114ba565b5060e082015161173860e0850182611434565b5061010082015161174d610100850182611434565b50505050565b600061012082019050611769600083018461169c565b92915050565b600082825260208201905092915050565b7f446f6e277420617474656d7020746f206368616e6765206d61726b6574706c6160008201527f6365206164647265737321000000000000000000000000000000000000000000602082015250565b60006117dc602b8361176f565b91506117e782611780565b604082019050919050565b6000602082019050818103600083015261180b816117cf565b9050919050565b7f42696420436f6e74726163743a2042696420696420697320696e76616c696400600082015250565b6000611848601f8361176f565b915061185382611812565b602082019050919050565b600060208201905081810360008301526118778161183b565b9050919050565b7f697343616c6c65644d61726b6574706c6163653a20796f752063616e2774206360008201527f616c6c20746869732066756e6374696f6e000000000000000000000000000000602082015250565b60006118da60318361176f565b91506118e58261187e565b604082019050919050565b60006020820190508181036000830152611909816118cd565b9050919050565b7f596f752063616e27742064656e79207468697320626964000000000000000000600082015250565b600061194660178361176f565b915061195182611910565b602082019050919050565b6000602082019050818103600083015261197581611939565b9050919050565b7f4e487b7100000000000000000000000000000000000000000000000000000000600052601160045260246000fd5b60006119b68261132a565b91507fffffffffffffffffffffffffffffffffffffffffffffffffffffffffffffffff8214156119e9576119e861197c565b5b600182019050919050565b7f4e487b7100000000000000000000000000000000000000000000000000000000600052604160045260246000fd5b7f4e487b7100000000000000000000000000000000000000000000000000000000600052603260045260246000fdfea2646970667358221220043820368c55672d4b00d28f5781aaa159ac078280f03dcf8618bbf4c6ad83e564736f6c634300080b0033",
  "immutableReferences": {},
  "source": "// SPDX-License-Identifier: MIT\r\npragma solidity >=0.4.22 <0.9.0;\r\n\r\nimport \"@openzeppelin/contracts/utils/Counters.sol\";\r\n\r\ncontract Bid {\r\n    using Counters for Counters.Counter ;\r\n\r\n    Counters.Counter bid_counter ;\r\n\r\n    address private _solsMarketplace = address(0);\r\n    enum BidStatus { Pending, Accepted, Denied }\r\n\r\n    struct bid {\r\n        uint256 bid_id ;\r\n        uint256 nft_id ;\r\n        address from ;\r\n        address to ;\r\n        uint256 amount ;\r\n        uint256 price ;\r\n        BidStatus status ;\r\n        uint256 placed_at ;\r\n        uint256 checked_at ;\r\n    }\r\n\r\n    mapping(uint256 => bid) private bids ;\r\n\r\n    constructor () {}\r\n\r\n    function setSolsMarketplaceToBid(address solsMarketplace) external {\r\n        require(_solsMarketplace ==  address(0), \"Don't attemp to change marketplace address!\") ;\r\n\r\n        _solsMarketplace = solsMarketplace ;\r\n    }\r\n\r\n    function place(uint256 nft_id, address _from, address _to, uint256 _amount, uint256 _price) external isCalledMarketplace {\r\n        uint256 new_bid_id = bid_counter.current();\r\n\r\n        bids[new_bid_id].bid_id = new_bid_id ;\r\n        bids[new_bid_id].nft_id = nft_id ;\r\n        bids[new_bid_id].from = _from ;\r\n        bids[new_bid_id].to = _to ;\r\n        bids[new_bid_id].amount = _amount ;\r\n        bids[new_bid_id].price = _price ;\r\n        bids[new_bid_id].placed_at = block.timestamp ;\r\n        bids[new_bid_id].checked_at = block.timestamp ;\r\n        bids[new_bid_id].status = BidStatus.Pending ;\r\n\r\n        bid_counter.increment();\r\n    }\r\n\r\n    function accept(uint256 bid_id) external isValidBidId(bid_id) isCalledMarketplace {\r\n        bids[bid_id].status = BidStatus.Accepted ;\r\n        bids[bid_id].checked_at = block.timestamp ;\r\n    }\r\n\r\n    function denyBid(uint256 bid_id) external isValidBidId(bid_id) {\r\n        require(bids[bid_id].from == msg.sender, \"You can't deny this bid\") ;\r\n\r\n        bids[bid_id].status = BidStatus.Denied ;\r\n        bids[bid_id].checked_at = block.timestamp ;\r\n    }\r\n\r\n    function autoCheck(uint256 bid_id, uint256 balanceOfCreator) external isValidBidId(bid_id) isCalledMarketplace {\r\n        for(uint256 i = 0 ; i < bid_counter.current() ; i++) {\r\n            if(\r\n                bids[i].amount > balanceOfCreator \r\n                && bids[i].status == BidStatus.Pending \r\n                && bids[i].nft_id == bids[bid_id].nft_id\r\n            ) {\r\n                bids[i].status = BidStatus.Denied ;\r\n                bids[i].checked_at = block.timestamp ;\r\n            }\r\n        }\r\n    }\r\n\r\n    function fetchBid(uint256 bid_id) external isValidBidId(bid_id) view returns(bid memory){\r\n        return bids[bid_id] ;\r\n    }\r\n    function isPending(uint256 bid_id) external isValidBidId(bid_id) view returns(bool) {\r\n        if(bids[bid_id].status == BidStatus.Pending) return true ;\r\n        return false ;\r\n    }\r\n\r\n    function fetchBidsByOwner(address _owner) external view returns(bid[] memory) {\r\n        uint256 _count = 0 ;\r\n\r\n        for(uint256 i = 0 ; i < bid_counter.current(); i++) {\r\n            if(bids[i].from == _owner) {\r\n                _count ++;\r\n            }\r\n        }\r\n\r\n        bid[] memory _bids = new bid[](_count) ;\r\n        _count = 0 ;\r\n\r\n        for(uint256 i = 0 ; i < bid_counter.current(); i++) {\r\n            if(bids[i].from == _owner) {\r\n                _bids[_count] = bids[i] ;\r\n                _count ++;\r\n            }\r\n        }\r\n\r\n        return _bids ;\r\n    }\r\n    function fetchOrdersByBidder(address _bidder) external view returns(bid[] memory) {\r\n        uint256 _count = 0 ;\r\n\r\n        for(uint256 i = 0 ; i < bid_counter.current(); i++) {\r\n            if(bids[i].to == _bidder) {\r\n                _count ++;\r\n            }\r\n        }\r\n\r\n        bid[] memory _bids = new bid[](_count) ;\r\n        _count = 0 ;\r\n\r\n        for(uint256 i = 0 ; i < bid_counter.current(); i++) {\r\n            if(bids[i].to == _bidder) {\r\n                _bids[_count] = bids[i] ;\r\n                _count ++;\r\n            }\r\n        }\r\n\r\n        return _bids ;\r\n    }\r\n    modifier isValidBidId(uint256 bid_id) {\r\n        require(bid_counter.current() > bid_id, \"Bid Contract: Bid id is invalid\") ;\r\n        _;\r\n    }\r\n    modifier isCalledMarketplace() {\r\n        require(_solsMarketplace == msg.sender, \"isCalledMarketplace: you can't call this function\") ;\r\n        _;\r\n    }\r\n}",
  "sourcePath": "E:\\Truffle-Ganache-NFT-Martkeplace\\nft-truffle-contract\\contracts\\Bid.sol",
  "compiler": {
    "name": "solc",
    "version": "0.8.11+commit.d7f03943.Emscripten.clang"
  },
  "schemaVersion": "3.4.4",
  "updatedAt": "2022-06-10T19:57:20.477Z",
  "networkType": "ethereum",
  "devdoc": {
    "kind": "dev",
    "methods": {},
    "version": 1
  },
  "userdoc": {
    "kind": "user",
    "methods": {},
    "version": 1
  }
}