{
  "contractName": "Legendary",
  "abi": [
    {
      "inputs": [],
      "stateMutability": "nonpayable",
      "type": "constructor"
    },
    {
      "inputs": [
        {
          "internalType": "address",
          "name": "solsMarketplace",
          "type": "address"
        }
      ],
      "name": "setSolsMarketplaceToLegen",
      "outputs": [],
      "stateMutability": "nonpayable",
      "type": "function"
    },
    {
      "inputs": [
        {
          "internalType": "uint256",
          "name": "new_nft_id",
          "type": "uint256"
        },
        {
          "components": [
            {
              "internalType": "uint256",
              "name": "product_price",
              "type": "uint256"
            },
            {
              "internalType": "uint256",
              "name": "product_unit",
              "type": "uint256"
            },
            {
              "internalType": "uint256",
              "name": "ticket_price",
              "type": "uint256"
            },
            {
              "internalType": "uint256",
              "name": "ticket_unit",
              "type": "uint256"
            },
            {
              "internalType": "uint256",
              "name": "ticket_available",
              "type": "uint256"
            },
            {
              "internalType": "uint256",
              "name": "royalty",
              "type": "uint256"
            }
          ],
          "internalType": "struct Legendary.legen_param",
          "name": "_legen_param",
          "type": "tuple"
        },
        {
          "internalType": "address",
          "name": "creator",
          "type": "address"
        },
        {
          "internalType": "bool",
          "name": "sold",
          "type": "bool"
        }
      ],
      "name": "insertLegen",
      "outputs": [],
      "stateMutability": "nonpayable",
      "type": "function"
    },
    {
      "inputs": [
        {
          "internalType": "uint256",
          "name": "nft_id",
          "type": "uint256"
        },
        {
          "internalType": "bool",
          "name": "sold",
          "type": "bool"
        }
      ],
      "name": "updateSold",
      "outputs": [],
      "stateMutability": "nonpayable",
      "type": "function"
    },
    {
      "inputs": [
        {
          "internalType": "uint256",
          "name": "nft_id",
          "type": "uint256"
        },
        {
          "internalType": "uint256",
          "name": "index",
          "type": "uint256"
        },
        {
          "internalType": "address",
          "name": "_owner",
          "type": "address"
        }
      ],
      "name": "updateOwner",
      "outputs": [],
      "stateMutability": "nonpayable",
      "type": "function"
    },
    {
      "inputs": [
        {
          "internalType": "uint256",
          "name": "nft_id",
          "type": "uint256"
        },
        {
          "internalType": "address",
          "name": "_buyer",
          "type": "address"
        }
      ],
      "name": "updateBuyer",
      "outputs": [],
      "stateMutability": "nonpayable",
      "type": "function"
    },
    {
      "inputs": [
        {
          "internalType": "uint256",
          "name": "nft_id",
          "type": "uint256"
        },
        {
          "internalType": "address",
          "name": "owner",
          "type": "address"
        }
      ],
      "name": "deleteOwner",
      "outputs": [],
      "stateMutability": "nonpayable",
      "type": "function"
    },
    {
      "inputs": [
        {
          "internalType": "uint256",
          "name": "nft_id",
          "type": "uint256"
        }
      ],
      "name": "fetchLegen",
      "outputs": [
        {
          "components": [
            {
              "internalType": "uint256",
              "name": "product_price",
              "type": "uint256"
            },
            {
              "internalType": "uint256",
              "name": "product_unit",
              "type": "uint256"
            },
            {
              "internalType": "uint256",
              "name": "ticket_price",
              "type": "uint256"
            },
            {
              "internalType": "uint256",
              "name": "ticket_unit",
              "type": "uint256"
            },
            {
              "internalType": "uint256",
              "name": "ticket_available",
              "type": "uint256"
            },
            {
              "internalType": "uint256",
              "name": "royalty",
              "type": "uint256"
            },
            {
              "internalType": "address",
              "name": "creator",
              "type": "address"
            },
            {
              "internalType": "bool",
              "name": "sold",
              "type": "bool"
            }
          ],
          "internalType": "struct Legendary.legendary",
          "name": "",
          "type": "tuple"
        }
      ],
      "stateMutability": "view",
      "type": "function",
      "constant": true
    },
    {
      "inputs": [
        {
          "internalType": "uint256",
          "name": "nft_id",
          "type": "uint256"
        },
        {
          "internalType": "address",
          "name": "_owner",
          "type": "address"
        }
      ],
      "name": "checkOwner",
      "outputs": [
        {
          "internalType": "bool",
          "name": "",
          "type": "bool"
        }
      ],
      "stateMutability": "view",
      "type": "function",
      "constant": true
    },
    {
      "inputs": [
        {
          "internalType": "uint256",
          "name": "nft_id",
          "type": "uint256"
        },
        {
          "internalType": "address",
          "name": "_buyer",
          "type": "address"
        }
      ],
      "name": "checkBuyer",
      "outputs": [
        {
          "internalType": "bool",
          "name": "",
          "type": "bool"
        }
      ],
      "stateMutability": "view",
      "type": "function",
      "constant": true
    },
    {
      "inputs": [
        {
          "internalType": "uint256",
          "name": "nft_id",
          "type": "uint256"
        },
        {
          "internalType": "address",
          "name": "_address",
          "type": "address"
        }
      ],
      "name": "checkOwnerOrBuyer",
      "outputs": [
        {
          "internalType": "bool",
          "name": "",
          "type": "bool"
        }
      ],
      "stateMutability": "view",
      "type": "function",
      "constant": true
    },
    {
      "inputs": [
        {
          "internalType": "uint256",
          "name": "nft_id",
          "type": "uint256"
        },
        {
          "internalType": "address",
          "name": "owner",
          "type": "address"
        }
      ],
      "name": "ownerIndex",
      "outputs": [
        {
          "internalType": "uint256",
          "name": "",
          "type": "uint256"
        }
      ],
      "stateMutability": "view",
      "type": "function",
      "constant": true
    }
  ],
  "bytecode": "0x608060405260008060006101000a81548173ffffffffffffffffffffffffffffffffffffffff021916908373ffffffffffffffffffffffffffffffffffffffff16021790555034801561005157600080fd5b50611248806100616000396000f3fe608060405234801561001057600080fd5b50600436106100a95760003560e01c806346f1b7a11161007157806346f1b7a11461014e5780635fe0ac3a1461016a578063be8dbea614610186578063bf77f35f146101b6578063e9ae5929146101e6578063fec4d15d14610216576100a9565b8063035bbc71146100ae57806316dd0891146100ca5780631923167e146100e65780631b0131e8146101025780633bfb8e921461011e575b600080fd5b6100c860048036038101906100c39190610c69565b610246565b005b6100e460048036038101906100df9190610ccc565b610318565b005b61010060048036038101906100fb9190610d0c565b610413565b005b61011c60048036038101906101179190610ccc565b6104fb565b005b61013860048036038101906101339190610ccc565b6105e1565b6040516101459190610d6e565b60405180910390f35b61016860048036038101906101639190610ef2565b61063c565b005b610184600480360381019061017f9190610f5b565b610849565b005b6101a0600480360381019061019b9190610ccc565b610909565b6040516101ad9190610faa565b60405180910390f35b6101d060048036038101906101cb9190610ccc565b610977565b6040516101dd9190610faa565b60405180910390f35b61020060048036038101906101fb9190610fc5565b610a4b565b60405161020d91906110c1565b60405180910390f35b610230600480360381019061022b9190610ccc565b610b26565b60405161023d9190610faa565b60405180910390f35b600073ffffffffffffffffffffffffffffffffffffffff1660008054906101000a900473ffffffffffffffffffffffffffffffffffffffff1673ffffffffffffffffffffffffffffffffffffffff16146102d5576040517f08c379a00000000000000000000000000000000000000000000000000000000081526004016102cc90611160565b60405180910390fd5b806000806101000a81548173ffffffffffffffffffffffffffffffffffffffff021916908373ffffffffffffffffffffffffffffffffffffffff16021790555050565b3373ffffffffffffffffffffffffffffffffffffffff1660008054906101000a900473ffffffffffffffffffffffffffffffffffffffff1673ffffffffffffffffffffffffffffffffffffffff16146103a6576040517f08c379a000000000000000000000000000000000000000000000000000000000815260040161039d906111f2565b60405180910390fd5b60016003600084815260200190815260200160002060008373ffffffffffffffffffffffffffffffffffffffff1673ffffffffffffffffffffffffffffffffffffffff16815260200190815260200160002060006101000a81548160ff0219169083151502179055505050565b3373ffffffffffffffffffffffffffffffffffffffff1660008054906101000a900473ffffffffffffffffffffffffffffffffffffffff1673ffffffffffffffffffffffffffffffffffffffff16146104a1576040517f08c379a0000000000000000000000000000000000000000000000000000000008152600401610498906111f2565b60405180910390fd5b816002600085815260200190815260200160002060008373ffffffffffffffffffffffffffffffffffffffff1673ffffffffffffffffffffffffffffffffffffffff16815260200190815260200160002081905550505050565b3373ffffffffffffffffffffffffffffffffffffffff1660008054906101000a900473ffffffffffffffffffffffffffffffffffffffff1673ffffffffffffffffffffffffffffffffffffffff1614610589576040517f08c379a0000000000000000000000000000000000000000000000000000000008152600401610580906111f2565b60405180910390fd5b6002600083815260200190815260200160002060008273ffffffffffffffffffffffffffffffffffffffff1673ffffffffffffffffffffffffffffffffffffffff168152602001908152602001600020600090555050565b60006002600084815260200190815260200160002060008373ffffffffffffffffffffffffffffffffffffffff1673ffffffffffffffffffffffffffffffffffffffff16815260200190815260200160002054905092915050565b3373ffffffffffffffffffffffffffffffffffffffff1660008054906101000a900473ffffffffffffffffffffffffffffffffffffffff1673ffffffffffffffffffffffffffffffffffffffff16146106ca576040517f08c379a00000000000000000000000000000000000000000000000000000000081526004016106c1906111f2565b60405180910390fd5b60405180610100016040528084600001518152602001846020015181526020018460400151815260200184606001518152602001846080015181526020018460a0015181526020018373ffffffffffffffffffffffffffffffffffffffff16815260200182151581525060016000868152602001908152602001600020600082015181600001556020820151816001015560408201518160020155606082015181600301556080820151816004015560a0820151816005015560c08201518160060160006101000a81548173ffffffffffffffffffffffffffffffffffffffff021916908373ffffffffffffffffffffffffffffffffffffffff16021790555060e08201518160060160146101000a81548160ff02191690831515021790555090505060016002600086815260200190815260200160002060008473ffffffffffffffffffffffffffffffffffffffff1673ffffffffffffffffffffffffffffffffffffffff1681526020019081526020016000208190555050505050565b3373ffffffffffffffffffffffffffffffffffffffff1660008054906101000a900473ffffffffffffffffffffffffffffffffffffffff1673ffffffffffffffffffffffffffffffffffffffff16146108d7576040517f08c379a00000000000000000000000000000000000000000000000000000000081526004016108ce906111f2565b60405180910390fd5b806001600084815260200190815260200160002060060160146101000a81548160ff0219169083151502179055505050565b6000806002600085815260200190815260200160002060008473ffffffffffffffffffffffffffffffffffffffff1673ffffffffffffffffffffffffffffffffffffffff16815260200190815260200160002054111561096c5760019050610971565b600090505b92915050565b60006003600084815260200190815260200160002060008373ffffffffffffffffffffffffffffffffffffffff1673ffffffffffffffffffffffffffffffffffffffff16815260200190815260200160002060009054906101000a900460ff1680610a32575060006002600085815260200190815260200160002060008473ffffffffffffffffffffffffffffffffffffffff1673ffffffffffffffffffffffffffffffffffffffff16815260200190815260200160002054115b15610a405760019050610a45565b600090505b92915050565b610a53610b9f565b60016000838152602001908152602001600020604051806101000160405290816000820154815260200160018201548152602001600282015481526020016003820154815260200160048201548152602001600582015481526020016006820160009054906101000a900473ffffffffffffffffffffffffffffffffffffffff1673ffffffffffffffffffffffffffffffffffffffff1673ffffffffffffffffffffffffffffffffffffffff1681526020016006820160149054906101000a900460ff1615151515815250509050919050565b60006003600084815260200190815260200160002060008373ffffffffffffffffffffffffffffffffffffffff1673ffffffffffffffffffffffffffffffffffffffff16815260200190815260200160002060009054906101000a900460ff1615610b945760019050610b99565b600090505b92915050565b604051806101000160405280600081526020016000815260200160008152602001600081526020016000815260200160008152602001600073ffffffffffffffffffffffffffffffffffffffff1681526020016000151581525090565b6000604051905090565b600080fd5b600073ffffffffffffffffffffffffffffffffffffffff82169050919050565b6000610c3682610c0b565b9050919050565b610c4681610c2b565b8114610c5157600080fd5b50565b600081359050610c6381610c3d565b92915050565b600060208284031215610c7f57610c7e610c06565b5b6000610c8d84828501610c54565b91505092915050565b6000819050919050565b610ca981610c96565b8114610cb457600080fd5b50565b600081359050610cc681610ca0565b92915050565b60008060408385031215610ce357610ce2610c06565b5b6000610cf185828601610cb7565b9250506020610d0285828601610c54565b9150509250929050565b600080600060608486031215610d2557610d24610c06565b5b6000610d3386828701610cb7565b9350506020610d4486828701610cb7565b9250506040610d5586828701610c54565b9150509250925092565b610d6881610c96565b82525050565b6000602082019050610d836000830184610d5f565b92915050565b600080fd5b6000601f19601f8301169050919050565b7f4e487b7100000000000000000000000000000000000000000000000000000000600052604160045260246000fd5b610dd782610d8e565b810181811067ffffffffffffffff82111715610df657610df5610d9f565b5b80604052505050565b6000610e09610bfc565b9050610e158282610dce565b919050565b600060c08284031215610e3057610e2f610d89565b5b610e3a60c0610dff565b90506000610e4a84828501610cb7565b6000830152506020610e5e84828501610cb7565b6020830152506040610e7284828501610cb7565b6040830152506060610e8684828501610cb7565b6060830152506080610e9a84828501610cb7565b60808301525060a0610eae84828501610cb7565b60a08301525092915050565b60008115159050919050565b610ecf81610eba565b8114610eda57600080fd5b50565b600081359050610eec81610ec6565b92915050565b6000806000806101208587031215610f0d57610f0c610c06565b5b6000610f1b87828801610cb7565b9450506020610f2c87828801610e1a565b93505060e0610f3d87828801610c54565b925050610100610f4f87828801610edd565b91505092959194509250565b60008060408385031215610f7257610f71610c06565b5b6000610f8085828601610cb7565b9250506020610f9185828601610edd565b9150509250929050565b610fa481610eba565b82525050565b6000602082019050610fbf6000830184610f9b565b92915050565b600060208284031215610fdb57610fda610c06565b5b6000610fe984828501610cb7565b91505092915050565b610ffb81610c96565b82525050565b61100a81610c2b565b82525050565b61101981610eba565b82525050565b610100820160008201516110366000850182610ff2565b5060208201516110496020850182610ff2565b50604082015161105c6040850182610ff2565b50606082015161106f6060850182610ff2565b5060808201516110826080850182610ff2565b5060a082015161109560a0850182610ff2565b5060c08201516110a860c0850182611001565b5060e08201516110bb60e0850182611010565b50505050565b6000610100820190506110d7600083018461101f565b92915050565b600082825260208201905092915050565b7f4c6567656e6461727920436f6e74726163743a20446f6e277420617474656d7060008201527f20746f206368616e6765206d61726b6574706c61636520616464726573732100602082015250565b600061114a603f836110dd565b9150611155826110ee565b604082019050919050565b600060208201905081810360008301526111798161113d565b9050919050565b7f697343616c6c65644d61726b6574706c6163653a20796f752063616e2774206360008201527f616c6c20746869732066756e6374696f6e000000000000000000000000000000602082015250565b60006111dc6031836110dd565b91506111e782611180565b604082019050919050565b6000602082019050818103600083015261120b816111cf565b905091905056fea2646970667358221220af02d7cf31d37178bda27e0e1b6b06f8af03b02bc9179b002e747e54ef7e316c64736f6c634300080b0033",
  "immutableReferences": {},
  "source": "// SPDX-License-Identifier: MIT\r\npragma solidity >=0.4.22 <0.9.0;\r\n\r\ncontract Legendary {\r\n\r\n    struct legendary {\r\n        uint256 product_price ;\r\n        uint256 product_unit ;\r\n        uint256 ticket_price ;\r\n        uint256 ticket_unit;\r\n        uint256 ticket_available ;\r\n        uint256 royalty ;\r\n        address creator ;\r\n        bool sold ;\r\n    }\r\n\r\n    struct legen_param  {\r\n        uint256 product_price ;\r\n        uint256 product_unit ;\r\n        uint256 ticket_price ;\r\n        uint256 ticket_unit ;\r\n        uint256 ticket_available  ;\r\n        uint256 royalty ;\r\n    }\r\n\r\n    address private _solsMarketplace = address(0);\r\n\r\n    mapping(uint256 => legendary) private lists ;\r\n    mapping(uint256 => mapping(address => uint256)) owners;\r\n    mapping(uint256 => mapping(address => bool)) buyers ;\r\n\r\n    constructor () {}\r\n    \r\n    function setSolsMarketplaceToLegen(address solsMarketplace) external {\r\n        require(_solsMarketplace ==  address(0), \"Legendary Contract: Don't attemp to change marketplace address!\") ;\r\n\r\n        _solsMarketplace = address(solsMarketplace) ;\r\n    }\r\n\r\n    function insertLegen(\r\n        uint256 new_nft_id, \r\n        legen_param memory _legen_param,\r\n        address creator, \r\n        bool sold\r\n    ) external isCalledMarketplace {\r\n        lists[new_nft_id] = legendary (\r\n            _legen_param.product_price ,\r\n            _legen_param.product_unit,\r\n            _legen_param.ticket_price ,\r\n            _legen_param.ticket_unit,\r\n            _legen_param.ticket_available ,\r\n            _legen_param.royalty ,\r\n            creator,\r\n            sold\r\n        );\r\n        owners[new_nft_id][creator] = 1 ;\r\n    }\r\n\r\n    function updateSold(uint256 nft_id, bool sold) external isCalledMarketplace {\r\n        lists[nft_id].sold = sold ;\r\n    }\r\n    function updateOwner(uint256 nft_id, uint256 index, address _owner) external isCalledMarketplace {\r\n        owners[nft_id][_owner] = index ;\r\n    }\r\n    function updateBuyer(uint256 nft_id, address _buyer) external isCalledMarketplace {\r\n        buyers[nft_id][_buyer] = true ;\r\n    }\r\n    function deleteOwner(uint256 nft_id, address owner) external isCalledMarketplace {\r\n        delete(owners[nft_id][owner]) ;\r\n    }\r\n\r\n    function fetchLegen(uint256 nft_id) external view returns(legendary memory) {\r\n        return lists[nft_id] ;\r\n    }\r\n    function checkOwner(uint256 nft_id , address _owner) external view returns(bool) {\r\n        if(owners[nft_id][_owner] > 0) return true ;\r\n        return false ;\r\n    }\r\n    function checkBuyer(uint256 nft_id, address _buyer) external view returns(bool) {\r\n        if(buyers[nft_id][_buyer]) return true ;\r\n        return false ;\r\n    }\r\n    function checkOwnerOrBuyer(uint256 nft_id, address _address) external view returns(bool) {\r\n        if(buyers[nft_id][_address] || owners[nft_id][_address] > 0) return true ;\r\n        return false ;\r\n    }\r\n    function ownerIndex(uint256 nft_id, address owner) external view returns(uint256) {\r\n        return owners[nft_id][owner] ;\r\n    }\r\n\r\n    modifier isCalledMarketplace() {\r\n        require(_solsMarketplace == msg.sender, \"isCalledMarketplace: you can't call this function\") ;\r\n        _;\r\n    }\r\n}",
  "sourcePath": "E:\\Truffle-Ganache-NFT-Martkeplace\\nft-truffle-contract\\contracts\\Legendary.sol",
  "compiler": {
    "name": "solc",
    "version": "0.8.11+commit.d7f03943.Emscripten.clang"
  },
  "schemaVersion": "3.4.4",
  "updatedAt": "2022-06-10T19:57:20.445Z",
  "networkType": "ethereum",
  "devdoc": {
    "kind": "dev",
    "methods": {},
    "version": 1
  },
  "userdoc": {
    "kind": "user",
    "methods": {},
    "version": 1
  }
}