{
  "contractName": "Rare",
  "abi": [
    {
      "inputs": [],
      "stateMutability": "nonpayable",
      "type": "constructor"
    },
    {
      "inputs": [
        {
          "internalType": "address",
          "name": "solsMarketplace",
          "type": "address"
        }
      ],
      "name": "setSolsMarketplaceToRare",
      "outputs": [],
      "stateMutability": "nonpayable",
      "type": "function"
    },
    {
      "inputs": [
        {
          "internalType": "uint256",
          "name": "new_nft_id",
          "type": "uint256"
        },
        {
          "components": [
            {
              "internalType": "uint256",
              "name": "minimum_bidding",
              "type": "uint256"
            },
            {
              "internalType": "uint256",
              "name": "bid_unit",
              "type": "uint256"
            },
            {
              "internalType": "uint256",
              "name": "item_available",
              "type": "uint256"
            },
            {
              "internalType": "uint256",
              "name": "royalty",
              "type": "uint256"
            }
          ],
          "internalType": "struct Rare.rare_param",
          "name": "_rare_param",
          "type": "tuple"
        },
        {
          "internalType": "address",
          "name": "creator",
          "type": "address"
        },
        {
          "internalType": "bool",
          "name": "sold",
          "type": "bool"
        }
      ],
      "name": "insertRare",
      "outputs": [],
      "stateMutability": "nonpayable",
      "type": "function"
    },
    {
      "inputs": [
        {
          "internalType": "uint256",
          "name": "nft_id",
          "type": "uint256"
        },
        {
          "internalType": "bool",
          "name": "sold",
          "type": "bool"
        }
      ],
      "name": "updateSold",
      "outputs": [],
      "stateMutability": "nonpayable",
      "type": "function"
    },
    {
      "inputs": [
        {
          "internalType": "uint256",
          "name": "nft_id",
          "type": "uint256"
        },
        {
          "internalType": "address",
          "name": "owner",
          "type": "address"
        },
        {
          "internalType": "uint256",
          "name": "index",
          "type": "uint256"
        }
      ],
      "name": "updateOwner",
      "outputs": [],
      "stateMutability": "nonpayable",
      "type": "function"
    },
    {
      "inputs": [
        {
          "internalType": "uint256",
          "name": "nft_id",
          "type": "uint256"
        }
      ],
      "name": "fetchRare",
      "outputs": [
        {
          "components": [
            {
              "internalType": "uint256",
              "name": "minimum_bidding",
              "type": "uint256"
            },
            {
              "internalType": "uint256",
              "name": "bid_unit",
              "type": "uint256"
            },
            {
              "internalType": "uint256",
              "name": "item_available",
              "type": "uint256"
            },
            {
              "internalType": "uint256",
              "name": "royalty",
              "type": "uint256"
            },
            {
              "internalType": "address",
              "name": "creator",
              "type": "address"
            },
            {
              "internalType": "bool",
              "name": "sold",
              "type": "bool"
            }
          ],
          "internalType": "struct Rare.rare",
          "name": "",
          "type": "tuple"
        }
      ],
      "stateMutability": "view",
      "type": "function",
      "constant": true
    },
    {
      "inputs": [
        {
          "internalType": "uint256",
          "name": "nft_id",
          "type": "uint256"
        },
        {
          "internalType": "address",
          "name": "_owner",
          "type": "address"
        }
      ],
      "name": "checkOwner",
      "outputs": [
        {
          "internalType": "bool",
          "name": "",
          "type": "bool"
        }
      ],
      "stateMutability": "view",
      "type": "function",
      "constant": true
    }
  ],
  "bytecode": "0x608060405260008060006101000a81548173ffffffffffffffffffffffffffffffffffffffff021916908373ffffffffffffffffffffffffffffffffffffffff16021790555034801561005157600080fd5b50610ce7806100616000396000f3fe608060405234801561001057600080fd5b50600436106100625760003560e01c806301f3b0be146100675780632b08d8ab146100975780635ea437c1146100b35780635fe0ac3a146100cf578063746fe2fd146100eb578063be8dbea614610107575b600080fd5b610081600480360381019061007c919061075c565b610137565b60405161008e919061086f565b60405180910390f35b6100b160048036038101906100ac91906108b6565b6101fd565b005b6100cd60048036038101906100c89190610a18565b6102cf565b005b6100e960048036038101906100e49190610a7f565b6104b3565b005b61010560048036038101906101009190610abf565b610573565b005b610121600480360381019061011c9190610b12565b61065b565b60405161012e9190610b61565b60405180910390f35b61013f6106c9565b600160008381526020019081526020016000206040518060c0016040529081600082015481526020016001820154815260200160028201548152602001600382015481526020016004820160009054906101000a900473ffffffffffffffffffffffffffffffffffffffff1673ffffffffffffffffffffffffffffffffffffffff1673ffffffffffffffffffffffffffffffffffffffff1681526020016004820160149054906101000a900460ff1615151515815250509050919050565b600073ffffffffffffffffffffffffffffffffffffffff1660008054906101000a900473ffffffffffffffffffffffffffffffffffffffff1673ffffffffffffffffffffffffffffffffffffffff161461028c576040517f08c379a000000000000000000000000000000000000000000000000000000000815260040161028390610bff565b60405180910390fd5b806000806101000a81548173ffffffffffffffffffffffffffffffffffffffff021916908373ffffffffffffffffffffffffffffffffffffffff16021790555050565b3373ffffffffffffffffffffffffffffffffffffffff1660008054906101000a900473ffffffffffffffffffffffffffffffffffffffff1673ffffffffffffffffffffffffffffffffffffffff161461035d576040517f08c379a000000000000000000000000000000000000000000000000000000000815260040161035490610c91565b60405180910390fd5b6040518060c00160405280846000015181526020018460200151815260200184604001518152602001846060015181526020018373ffffffffffffffffffffffffffffffffffffffff168152602001821515815250600160008681526020019081526020016000206000820151816000015560208201518160010155604082015181600201556060820151816003015560808201518160040160006101000a81548173ffffffffffffffffffffffffffffffffffffffff021916908373ffffffffffffffffffffffffffffffffffffffff16021790555060a08201518160040160146101000a81548160ff02191690831515021790555090505060016002600086815260200190815260200160002060008473ffffffffffffffffffffffffffffffffffffffff1673ffffffffffffffffffffffffffffffffffffffff1681526020019081526020016000208190555050505050565b3373ffffffffffffffffffffffffffffffffffffffff1660008054906101000a900473ffffffffffffffffffffffffffffffffffffffff1673ffffffffffffffffffffffffffffffffffffffff1614610541576040517f08c379a000000000000000000000000000000000000000000000000000000000815260040161053890610c91565b60405180910390fd5b806001600084815260200190815260200160002060040160146101000a81548160ff0219169083151502179055505050565b3373ffffffffffffffffffffffffffffffffffffffff1660008054906101000a900473ffffffffffffffffffffffffffffffffffffffff1673ffffffffffffffffffffffffffffffffffffffff1614610601576040517f08c379a00000000000000000000000000000000000000000000000000000000081526004016105f890610c91565b60405180910390fd5b806002600085815260200190815260200160002060008473ffffffffffffffffffffffffffffffffffffffff1673ffffffffffffffffffffffffffffffffffffffff16815260200190815260200160002081905550505050565b6000806002600085815260200190815260200160002060008473ffffffffffffffffffffffffffffffffffffffff1673ffffffffffffffffffffffffffffffffffffffff1681526020019081526020016000205411156106be57600190506106c3565b600090505b92915050565b6040518060c0016040528060008152602001600081526020016000815260200160008152602001600073ffffffffffffffffffffffffffffffffffffffff1681526020016000151581525090565b6000604051905090565b600080fd5b6000819050919050565b61073981610726565b811461074457600080fd5b50565b60008135905061075681610730565b92915050565b60006020828403121561077257610771610721565b5b600061078084828501610747565b91505092915050565b61079281610726565b82525050565b600073ffffffffffffffffffffffffffffffffffffffff82169050919050565b60006107c382610798565b9050919050565b6107d3816107b8565b82525050565b60008115159050919050565b6107ee816107d9565b82525050565b60c08201600082015161080a6000850182610789565b50602082015161081d6020850182610789565b5060408201516108306040850182610789565b5060608201516108436060850182610789565b50608082015161085660808501826107ca565b5060a082015161086960a08501826107e5565b50505050565b600060c08201905061088460008301846107f4565b92915050565b610893816107b8565b811461089e57600080fd5b50565b6000813590506108b08161088a565b92915050565b6000602082840312156108cc576108cb610721565b5b60006108da848285016108a1565b91505092915050565b600080fd5b6000601f19601f8301169050919050565b7f4e487b7100000000000000000000000000000000000000000000000000000000600052604160045260246000fd5b610931826108e8565b810181811067ffffffffffffffff821117156109505761094f6108f9565b5b80604052505050565b6000610963610717565b905061096f8282610928565b919050565b60006080828403121561098a576109896108e3565b5b6109946080610959565b905060006109a484828501610747565b60008301525060206109b884828501610747565b60208301525060406109cc84828501610747565b60408301525060606109e084828501610747565b60608301525092915050565b6109f5816107d9565b8114610a0057600080fd5b50565b600081359050610a12816109ec565b92915050565b60008060008060e08587031215610a3257610a31610721565b5b6000610a4087828801610747565b9450506020610a5187828801610974565b93505060a0610a62878288016108a1565b92505060c0610a7387828801610a03565b91505092959194509250565b60008060408385031215610a9657610a95610721565b5b6000610aa485828601610747565b9250506020610ab585828601610a03565b9150509250929050565b600080600060608486031215610ad857610ad7610721565b5b6000610ae686828701610747565b9350506020610af7868287016108a1565b9250506040610b0886828701610747565b9150509250925092565b60008060408385031215610b2957610b28610721565b5b6000610b3785828601610747565b9250506020610b48858286016108a1565b9150509250929050565b610b5b816107d9565b82525050565b6000602082019050610b766000830184610b52565b92915050565b600082825260208201905092915050565b7f5261726520436f6e74726163743a20446f6e277420617474656d7020746f206360008201527f68616e6765206d61726b6574706c616365206164647265737321000000000000602082015250565b6000610be9603a83610b7c565b9150610bf482610b8d565b604082019050919050565b60006020820190508181036000830152610c1881610bdc565b9050919050565b7f697343616c6c65644d61726b6574706c6163653a20796f752063616e2774206360008201527f616c6c20746869732066756e6374696f6e000000000000000000000000000000602082015250565b6000610c7b603183610b7c565b9150610c8682610c1f565b604082019050919050565b60006020820190508181036000830152610caa81610c6e565b905091905056fea264697066735822122074f62e6f39e32665c28d0075da70070099175a2797908a1f1005bc609da390c164736f6c634300080b0033",
  "immutableReferences": {},
  "source": "// SPDX-License-Identifier: MIT\r\npragma solidity >=0.4.22 <0.9.0;\r\n\r\ncontract Rare {\r\n\r\n     struct rare {\r\n        uint256 minimum_bidding ;\r\n        uint256 bid_unit;\r\n        uint256 item_available ;\r\n        uint256 royalty ;\r\n        address creator ;\r\n        bool sold ;\r\n    }\r\n\r\n    struct rare_param {\r\n        uint256 minimum_bidding ;\r\n        uint256 bid_unit ;\r\n        uint256 item_available  ;\r\n        uint256 royalty ;\r\n    }\r\n\r\n    address private _solsMarketplace = address(0);\r\n\r\n    mapping(uint256 => rare) private lists ;\r\n    mapping(uint256 => mapping(address => uint256)) owners ;\r\n\r\n    constructor () {}\r\n\r\n    function setSolsMarketplaceToRare(address solsMarketplace) external {\r\n        require(_solsMarketplace ==  address(0), \"Rare Contract: Don't attemp to change marketplace address!\") ;\r\n\r\n        _solsMarketplace = address(solsMarketplace) ;\r\n    }\r\n\r\n    function insertRare(\r\n        uint256 new_nft_id, \r\n        rare_param memory _rare_param,\r\n        address creator, \r\n        bool sold\r\n    ) external isCalledMarketplace {\r\n        lists[new_nft_id] = rare (\r\n            _rare_param.minimum_bidding ,\r\n            _rare_param.bid_unit,\r\n            _rare_param.item_available ,\r\n            _rare_param.royalty ,\r\n            creator,\r\n            sold\r\n        );\r\n        owners[new_nft_id][creator] = 1 ;\r\n    }\r\n\r\n    function updateSold(uint256 nft_id, bool sold) external isCalledMarketplace {\r\n        lists[nft_id].sold = sold ;\r\n    }\r\n    function updateOwner(uint256 nft_id, address owner, uint256 index) external isCalledMarketplace {\r\n        owners[nft_id][owner] = index ;\r\n    }\r\n\r\n    function fetchRare(uint256 nft_id) external view returns(rare memory) {\r\n        return lists[nft_id] ;\r\n    }\r\n    function checkOwner(uint256 nft_id , address _owner) external view returns(bool) {\r\n        if(owners[nft_id][_owner] > 0) return true ;\r\n        return false ;\r\n    }\r\n\r\n     modifier isCalledMarketplace() {\r\n        require(_solsMarketplace == msg.sender, \"isCalledMarketplace: you can't call this function\") ;\r\n        _;\r\n    }\r\n}",
  "sourcePath": "E:\\Truffle-Ganache-NFT-Martkeplace\\nft-truffle-contract\\contracts\\Rare.sol",
  "compiler": {
    "name": "solc",
    "version": "0.8.11+commit.d7f03943.Emscripten.clang"
  },
  "schemaVersion": "3.4.4",
  "updatedAt": "2022-06-10T19:57:20.459Z",
  "networkType": "ethereum",
  "devdoc": {
    "kind": "dev",
    "methods": {},
    "version": 1
  },
  "userdoc": {
    "kind": "user",
    "methods": {},
    "version": 1
  }
}