{
  "contractName": "SOLSMarketplace",
  "abi": [
    {
      "inputs": [
        {
          "internalType": "address",
          "name": "_SOLT",
          "type": "address"
        },
        {
          "internalType": "address",
          "name": "_LEGEN",
          "type": "address"
        },
        {
          "internalType": "address",
          "name": "_RARE",
          "type": "address"
        },
        {
          "internalType": "address",
          "name": "_BID",
          "type": "address"
        },
        {
          "internalType": "address",
          "name": "_SOLN",
          "type": "address"
        }
      ],
      "stateMutability": "nonpayable",
      "type": "constructor"
    },
    {
      "anonymous": false,
      "inputs": [
        {
          "indexed": false,
          "internalType": "uint256",
          "name": "",
          "type": "uint256"
        }
      ],
      "name": "NFTListed",
      "type": "event"
    },
    {
      "inputs": [
        {
          "internalType": "uint256",
          "name": "product_id",
          "type": "uint256"
        },
        {
          "components": [
            {
              "internalType": "uint256",
              "name": "product_price",
              "type": "uint256"
            },
            {
              "internalType": "uint256",
              "name": "product_unit",
              "type": "uint256"
            },
            {
              "internalType": "uint256",
              "name": "ticket_price",
              "type": "uint256"
            },
            {
              "internalType": "uint256",
              "name": "ticket_unit",
              "type": "uint256"
            },
            {
              "internalType": "uint256",
              "name": "ticket_available",
              "type": "uint256"
            },
            {
              "internalType": "uint256",
              "name": "royalty",
              "type": "uint256"
            }
          ],
          "internalType": "struct Legendary.legen_param",
          "name": "_legen_param",
          "type": "tuple"
        },
        {
          "internalType": "string",
          "name": "name",
          "type": "string"
        },
        {
          "internalType": "string",
          "name": "description",
          "type": "string"
        },
        {
          "internalType": "string",
          "name": "uri",
          "type": "string"
        }
      ],
      "name": "mintLegendary",
      "outputs": [],
      "stateMutability": "nonpayable",
      "type": "function"
    },
    {
      "inputs": [
        {
          "internalType": "uint256",
          "name": "nft_id",
          "type": "uint256"
        }
      ],
      "name": "buyLegendaryAsNFT",
      "outputs": [],
      "stateMutability": "nonpayable",
      "type": "function"
    },
    {
      "inputs": [
        {
          "internalType": "uint256",
          "name": "nft_id",
          "type": "uint256"
        },
        {
          "internalType": "address",
          "name": "wallet",
          "type": "address"
        }
      ],
      "name": "buyLegendaryAsProduct",
      "outputs": [],
      "stateMutability": "nonpayable",
      "type": "function"
    },
    {
      "inputs": [
        {
          "internalType": "uint256",
          "name": "product_id",
          "type": "uint256"
        },
        {
          "components": [
            {
              "internalType": "uint256",
              "name": "minimum_bidding",
              "type": "uint256"
            },
            {
              "internalType": "uint256",
              "name": "bid_unit",
              "type": "uint256"
            },
            {
              "internalType": "uint256",
              "name": "item_available",
              "type": "uint256"
            },
            {
              "internalType": "uint256",
              "name": "royalty",
              "type": "uint256"
            }
          ],
          "internalType": "struct Rare.rare_param",
          "name": "_rare_param",
          "type": "tuple"
        },
        {
          "internalType": "string",
          "name": "name",
          "type": "string"
        },
        {
          "internalType": "string",
          "name": "description",
          "type": "string"
        },
        {
          "internalType": "string",
          "name": "uri",
          "type": "string"
        }
      ],
      "name": "mintRare",
      "outputs": [],
      "stateMutability": "nonpayable",
      "type": "function"
    },
    {
      "inputs": [
        {
          "internalType": "uint256",
          "name": "nft_id",
          "type": "uint256"
        },
        {
          "internalType": "uint256",
          "name": "_amount",
          "type": "uint256"
        },
        {
          "internalType": "uint256",
          "name": "_price",
          "type": "uint256"
        }
      ],
      "name": "placeBid",
      "outputs": [],
      "stateMutability": "nonpayable",
      "type": "function"
    },
    {
      "inputs": [
        {
          "internalType": "uint256",
          "name": "bid_id",
          "type": "uint256"
        }
      ],
      "name": "acceptBid",
      "outputs": [],
      "stateMutability": "nonpayable",
      "type": "function"
    },
    {
      "inputs": [
        {
          "internalType": "address",
          "name": "_to",
          "type": "address"
        },
        {
          "internalType": "uint256",
          "name": "price",
          "type": "uint256"
        },
        {
          "internalType": "uint256",
          "name": "price_unit",
          "type": "uint256"
        }
      ],
      "name": "payment",
      "outputs": [],
      "stateMutability": "nonpayable",
      "type": "function"
    },
    {
      "inputs": [],
      "name": "fetchAllNFTs",
      "outputs": [
        {
          "components": [
            {
              "internalType": "uint256",
              "name": "nft_id",
              "type": "uint256"
            },
            {
              "internalType": "uint256",
              "name": "product_id",
              "type": "uint256"
            },
            {
              "internalType": "uint256",
              "name": "price_id",
              "type": "uint256"
            },
            {
              "internalType": "string",
              "name": "name",
              "type": "string"
            },
            {
              "internalType": "string",
              "name": "description",
              "type": "string"
            },
            {
              "internalType": "string",
              "name": "uri",
              "type": "string"
            },
            {
              "internalType": "address[]",
              "name": "owners",
              "type": "address[]"
            }
          ],
          "internalType": "struct SOLSMarketplace.nft[]",
          "name": "",
          "type": "tuple[]"
        }
      ],
      "stateMutability": "view",
      "type": "function",
      "constant": true
    },
    {
      "inputs": [
        {
          "internalType": "uint256",
          "name": "unit_id",
          "type": "uint256"
        }
      ],
      "name": "fetchUnitById",
      "outputs": [
        {
          "internalType": "address",
          "name": "",
          "type": "address"
        }
      ],
      "stateMutability": "view",
      "type": "function",
      "constant": true
    },
    {
      "inputs": [
        {
          "internalType": "uint256",
          "name": "nft_id",
          "type": "uint256"
        }
      ],
      "name": "fetchNFTById",
      "outputs": [
        {
          "components": [
            {
              "internalType": "uint256",
              "name": "nft_id",
              "type": "uint256"
            },
            {
              "internalType": "uint256",
              "name": "product_id",
              "type": "uint256"
            },
            {
              "internalType": "uint256",
              "name": "price_id",
              "type": "uint256"
            },
            {
              "internalType": "string",
              "name": "name",
              "type": "string"
            },
            {
              "internalType": "string",
              "name": "description",
              "type": "string"
            },
            {
              "internalType": "string",
              "name": "uri",
              "type": "string"
            },
            {
              "internalType": "address[]",
              "name": "owners",
              "type": "address[]"
            }
          ],
          "internalType": "struct SOLSMarketplace.nft",
          "name": "",
          "type": "tuple"
        }
      ],
      "stateMutability": "view",
      "type": "function",
      "constant": true
    },
    {
      "inputs": [],
      "name": "_marketplace",
      "outputs": [
        {
          "internalType": "address",
          "name": "",
          "type": "address"
        }
      ],
      "stateMutability": "view",
      "type": "function",
      "constant": true
    }
  ],
  "bytecode": "0x608060405260405180608001604052806040518060400160405280600581526020017f45626f6f6b00000000000000000000000000000000000000000000000000000081525081526020016040518060400160405280600581526020017f566964656f00000000000000000000000000000000000000000000000000000081525081526020016040518060400160405280600581526020017f496d61676500000000000000000000000000000000000000000000000000000081525081526020016040518060400160405280600581526020017f4d7573696300000000000000000000000000000000000000000000000000000081525081525060089060046200010b92919062000609565b5060405180604001604052806040518060400160405280600981526020017f6c6567656e64617279000000000000000000000000000000000000000000000081525081526020016040518060400160405280600481526020017f726172650000000000000000000000000000000000000000000000000000000081525081525060099060026200019d92919062000670565b50348015620001ab57600080fd5b50604051620066d9380380620066d98339818101604052810190620001d191906200085f565b84600160006101000a81548173ffffffffffffffffffffffffffffffffffffffff021916908373ffffffffffffffffffffffffffffffffffffffff16021790555083600360006101000a81548173ffffffffffffffffffffffffffffffffffffffff021916908373ffffffffffffffffffffffffffffffffffffffff16021790555082600460006101000a81548173ffffffffffffffffffffffffffffffffffffffff021916908373ffffffffffffffffffffffffffffffffffffffff16021790555081600560006101000a81548173ffffffffffffffffffffffffffffffffffffffff021916908373ffffffffffffffffffffffffffffffffffffffff16021790555080600260006101000a81548173ffffffffffffffffffffffffffffffffffffffff021916908373ffffffffffffffffffffffffffffffffffffffff16021790555033600660006101000a81548173ffffffffffffffffffffffffffffffffffffffff021916908373ffffffffffffffffffffffffffffffffffffffff160217905550600360009054906101000a900473ffffffffffffffffffffffffffffffffffffffff1673ffffffffffffffffffffffffffffffffffffffff1663035bbc71306040518263ffffffff1660e01b8152600401620003b49190620008f8565b600060405180830381600087803b158015620003cf57600080fd5b505af1158015620003e4573d6000803e3d6000fd5b50505050600460009054906101000a900473ffffffffffffffffffffffffffffffffffffffff1673ffffffffffffffffffffffffffffffffffffffff16632b08d8ab306040518263ffffffff1660e01b8152600401620004459190620008f8565b600060405180830381600087803b1580156200046057600080fd5b505af115801562000475573d6000803e3d6000fd5b50505050600560009054906101000a900473ffffffffffffffffffffffffffffffffffffffff1673ffffffffffffffffffffffffffffffffffffffff166301b69bb4306040518263ffffffff1660e01b8152600401620004d69190620008f8565b600060405180830381600087803b158015620004f157600080fd5b505af115801562000506573d6000803e3d6000fd5b50505050600260009054906101000a900473ffffffffffffffffffffffffffffffffffffffff1673ffffffffffffffffffffffffffffffffffffffff16634901b35b306040518263ffffffff1660e01b8152600401620005679190620008f8565b600060405180830381600087803b1580156200058257600080fd5b505af115801562000597573d6000803e3d6000fd5b505050506007859080600181540180825580915050600190039060005260206000200160009091909190916101000a81548173ffffffffffffffffffffffffffffffffffffffff021916908373ffffffffffffffffffffffffffffffffffffffff16021790555050505050506200097a565b8280548282559060005260206000209081019282156200065d579160200282015b828111156200065c5782518290805190602001906200064b929190620006d7565b50916020019190600101906200062a565b5b5090506200066c919062000768565b5090565b828054828255906000526020600020908101928215620006c4579160200282015b82811115620006c3578251829080519060200190620006b2929190620006d7565b509160200191906001019062000691565b5b509050620006d3919062000768565b5090565b828054620006e59062000944565b90600052602060002090601f01602090048101928262000709576000855562000755565b82601f106200072457805160ff191683800117855562000755565b8280016001018555821562000755579182015b828111156200075457825182559160200191906001019062000737565b5b50905062000764919062000790565b5090565b5b808211156200078c5760008181620007829190620007af565b5060010162000769565b5090565b5b80821115620007ab57600081600090555060010162000791565b5090565b508054620007bd9062000944565b6000825580601f10620007d15750620007f2565b601f016020900490600052602060002090810190620007f1919062000790565b5b50565b600080fd5b600073ffffffffffffffffffffffffffffffffffffffff82169050919050565b60006200082782620007fa565b9050919050565b62000839816200081a565b81146200084557600080fd5b50565b60008151905062000859816200082e565b92915050565b600080600080600060a086880312156200087e576200087d620007f5565b5b60006200088e8882890162000848565b9550506020620008a18882890162000848565b9450506040620008b48882890162000848565b9350506060620008c78882890162000848565b9250506080620008da8882890162000848565b9150509295509295909350565b620008f2816200081a565b82525050565b60006020820190506200090f6000830184620008e7565b92915050565b7f4e487b7100000000000000000000000000000000000000000000000000000000600052602260045260246000fd5b600060028204905060018216806200095d57607f821691505b6020821081141562000974576200097362000915565b5b50919050565b615d4f806200098a6000396000f3fe608060405234801561001057600080fd5b50600436106100a95760003560e01c80638bf75e91116100715780638bf75e91146101505780639b91293b1461016c578063be54622114610188578063cd5b0edd146101a6578063de59cb61146101d6578063e74a3577146101f2576100a9565b80632b1fd58a146100ae5780633622579b146100ca5780633f0e317b146100e657806344f51c28146101045780635e62be2514610134575b600080fd5b6100c860048036038101906100c39190613c18565b61020e565b005b6100e460048036038101906100df9190613c18565b610f77565b005b6100ee611b4a565b6040516100fb9190613f50565b60405180910390f35b61011e60048036038101906101199190613c18565b611e7a565b60405161012b9190613f81565b60405180910390f35b61014e60048036038101906101499190613f9c565b611ec2565b005b61016a600480360381019061016591906141a1565b6122e4565b005b6101866004803603810190610181919061429d565b6125fa565b005b61019061296f565b60405161019d9190613f81565b60405180910390f35b6101c060048036038101906101bb9190613c18565b612999565b6040516101cd91906143a1565b60405180910390f35b6101f060048036038101906101eb91906143c3565b612c28565b005b61020c600480360381019061020791906144a3565b61341f565b005b33600660009054906101000a900473ffffffffffffffffffffffffffffffffffffffff1673ffffffffffffffffffffffffffffffffffffffff168173ffffffffffffffffffffffffffffffffffffffff1614156102a0576040517f08c379a0000000000000000000000000000000000000000000000000000000008152600401610297906145d2565b60405180910390fd5b6000600560009054906101000a900473ffffffffffffffffffffffffffffffffffffffff1673ffffffffffffffffffffffffffffffffffffffff1663facdcd56846040518263ffffffff1660e01b81526004016102fd9190614601565b61012060405180830381865afa15801561031b573d6000803e3d6000fd5b505050506040513d601f19601f8201168201806040525081019061033f919061474b565b90506000600460009054906101000a900473ffffffffffffffffffffffffffffffffffffffff1673ffffffffffffffffffffffffffffffffffffffff166301f3b0be83602001516040518263ffffffff1660e01b81526004016103a29190614601565b60c060405180830381865afa1580156103bf573d6000803e3d6000fd5b505050506040513d601f19601f820116820180604052508101906103e39190614851565b90503373ffffffffffffffffffffffffffffffffffffffff16816080015173ffffffffffffffffffffffffffffffffffffffff1614610457576040517f08c379a000000000000000000000000000000000000000000000000000000000815260040161044e906148ca565b60405180910390fd5b600560009054906101000a900473ffffffffffffffffffffffffffffffffffffffff1673ffffffffffffffffffffffffffffffffffffffff1663ca8836d2856040518263ffffffff1660e01b81526004016104b29190614601565b602060405180830381865afa1580156104cf573d6000803e3d6000fd5b505050506040513d601f19601f820116820180604052508101906104f391906148ea565b610532576040517f08c379a000000000000000000000000000000000000000000000000000000000815260040161052990614963565b60405180910390fd5b60008260600151905060008360200151905060008460800151905060008560a00151905060008560800151905060008660a00151905080156105a9576040517f08c379a00000000000000000000000000000000000000000000000000000000081526004016105a0906149f5565b60405180910390fd5b6000600260009054906101000a900473ffffffffffffffffffffffffffffffffffffffff1673ffffffffffffffffffffffffffffffffffffffff1662fdd58e84886040518363ffffffff1660e01b8152600401610607929190614a15565b602060405180830381865afa158015610624573d6000803e3d6000fd5b505050506040513d601f19601f820116820180604052508101906106489190614a3e565b90508481101561068d576040517f08c379a000000000000000000000000000000000000000000000000000000000815260040161068490614add565b60405180910390fd5b8360078960200151815481106106a6576106a5614afd565b5b9060005260206000200160009054906101000a900473ffffffffffffffffffffffffffffffffffffffff1673ffffffffffffffffffffffffffffffffffffffff166370a08231896040518263ffffffff1660e01b81526004016107099190613f81565b602060405180830381865afa158015610726573d6000803e3d6000fd5b505050506040513d601f19601f8201168201806040525081019061074a9190614a3e565b101561078b576040517f08c379a000000000000000000000000000000000000000000000000000000000815260040161078290614b78565b60405180910390fd5b60078860200151815481106107a3576107a2614afd565b5b9060005260206000200160009054906101000a900473ffffffffffffffffffffffffffffffffffffffff1673ffffffffffffffffffffffffffffffffffffffff166323b872dd88600660009054906101000a900473ffffffffffffffffffffffffffffffffffffffff16606460018961081c9190614bc7565b6108269190614c50565b6040518463ffffffff1660e01b815260040161084493929190614c81565b6020604051808303816000875af1158015610863573d6000803e3d6000fd5b505050506040513d601f19601f8201168201806040525081019061088791906148ea565b5060078860200151815481106108a05761089f614afd565b5b9060005260206000200160009054906101000a900473ffffffffffffffffffffffffffffffffffffffff1673ffffffffffffffffffffffffffffffffffffffff166323b872dd888560646063896108f79190614bc7565b6109019190614c50565b6040518463ffffffff1660e01b815260040161091f93929190614c81565b6020604051808303816000875af115801561093e573d6000803e3d6000fd5b505050506040513d601f19601f8201168201806040525081019061096291906148ea565b50600260009054906101000a900473ffffffffffffffffffffffffffffffffffffffff1673ffffffffffffffffffffffffffffffffffffffff166336cd52a687858a896040518563ffffffff1660e01b81526004016109c49493929190614cb8565b600060405180830381600087803b1580156109de57600080fd5b505af11580156109f2573d6000803e3d6000fd5b5050505060008582610a049190614cfd565b1415610c77576000600a60008881526020019081526020016000206006016001600a60008a815260200190815260200160002060060180549050610a489190614cfd565b81548110610a5957610a58614afd565b5b9060005260206000200160009054906101000a900473ffffffffffffffffffffffffffffffffffffffff16905080600a6000898152602001908152602001600020600601600081548110610ab057610aaf614afd565b5b9060005260206000200160006101000a81548173ffffffffffffffffffffffffffffffffffffffff021916908373ffffffffffffffffffffffffffffffffffffffff160217905550600a6000888152602001908152602001600020600601805480610b1e57610b1d614d31565b5b6001900381819060005260206000200160006101000a81549073ffffffffffffffffffffffffffffffffffffffff02191690559055600460009054906101000a900473ffffffffffffffffffffffffffffffffffffffff1673ffffffffffffffffffffffffffffffffffffffff1663746fe2fd888360016040518463ffffffff1660e01b8152600401610bb393929190614da5565b600060405180830381600087803b158015610bcd57600080fd5b505af1158015610be1573d6000803e3d6000fd5b50505050600460009054906101000a900473ffffffffffffffffffffffffffffffffffffffff1673ffffffffffffffffffffffffffffffffffffffff16635fe0ac3a8860016040518363ffffffff1660e01b8152600401610c43929190614deb565b600060405180830381600087803b158015610c5d57600080fd5b505af1158015610c71573d6000803e3d6000fd5b50505050505b600a6000878152602001908152602001600020600601879080600181540180825580915050600190039060005260206000200160009091909190916101000a81548173ffffffffffffffffffffffffffffffffffffffff021916908373ffffffffffffffffffffffffffffffffffffffff160217905550600460009054906101000a900473ffffffffffffffffffffffffffffffffffffffff1673ffffffffffffffffffffffffffffffffffffffff1663746fe2fd8789600a60008b8152602001908152602001600020600601805490506040518463ffffffff1660e01b8152600401610d6693929190614e14565b600060405180830381600087803b158015610d8057600080fd5b505af1158015610d94573d6000803e3d6000fd5b50505050600560009054906101000a900473ffffffffffffffffffffffffffffffffffffffff1673ffffffffffffffffffffffffffffffffffffffff166319b05f498c6040518263ffffffff1660e01b8152600401610df39190614601565b600060405180830381600087803b158015610e0d57600080fd5b505af1158015610e21573d6000803e3d6000fd5b505050506000600260009054906101000a900473ffffffffffffffffffffffffffffffffffffffff1673ffffffffffffffffffffffffffffffffffffffff1662fdd58e85896040518363ffffffff1660e01b8152600401610e83929190614a15565b602060405180830381865afa158015610ea0573d6000803e3d6000fd5b505050506040513d601f19601f82011682018060405250810190610ec49190614a3e565b9050600560009054906101000a900473ffffffffffffffffffffffffffffffffffffffff1673ffffffffffffffffffffffffffffffffffffffff16638052af0b8d836040518363ffffffff1660e01b8152600401610f23929190614e4b565b600060405180830381600087803b158015610f3d57600080fd5b505af1158015610f51573d6000803e3d6000fd5b50505050610f5d6139b9565b9850610f67613a07565b9950505050505050505050505050565b80610f826000613793565b8110610fc3576040517f08c379a0000000000000000000000000000000000000000000000000000000008152600401610fba90614ec0565b60405180910390fd5b816001600a6000838152602001908152602001600020600201541461101d576040517f08c379a000000000000000000000000000000000000000000000000000000000815260040161101490614f52565b60405180910390fd5b33600660009054906101000a900473ffffffffffffffffffffffffffffffffffffffff1673ffffffffffffffffffffffffffffffffffffffff168173ffffffffffffffffffffffffffffffffffffffff1614156110af576040517f08c379a00000000000000000000000000000000000000000000000000000000081526004016110a6906145d2565b60405180910390fd5b60003390506000600360009054906101000a900473ffffffffffffffffffffffffffffffffffffffff1673ffffffffffffffffffffffffffffffffffffffff1663e9ae5929876040518263ffffffff1660e01b81526004016111119190614601565b61010060405180830381865afa15801561112f573d6000803e3d6000fd5b505050506040513d601f19601f82011682018060405250810190611153919061503c565b905060008160c001519050600082606001519050600083604001519050600360009054906101000a900473ffffffffffffffffffffffffffffffffffffffff1673ffffffffffffffffffffffffffffffffffffffff1663be8dbea68a876040518363ffffffff1660e01b81526004016111cd92919061506a565b602060405180830381865afa1580156111ea573d6000803e3d6000fd5b505050506040513d601f19601f8201168201806040525081019061120e91906148ea565b1561124e576040517f08c379a000000000000000000000000000000000000000000000000000000000815260040161124590615105565b60405180910390fd5b8360e0015115611293576040517f08c379a000000000000000000000000000000000000000000000000000000000815260040161128a90615197565b60405180910390fd5b80600783815481106112a8576112a7614afd565b5b9060005260206000200160009054906101000a900473ffffffffffffffffffffffffffffffffffffffff1673ffffffffffffffffffffffffffffffffffffffff166370a08231876040518263ffffffff1660e01b815260040161130b9190613f81565b602060405180830381865afa158015611328573d6000803e3d6000fd5b505050506040513d601f19601f8201168201806040525081019061134c9190614a3e565b101561138d576040517f08c379a000000000000000000000000000000000000000000000000000000000815260040161138490615203565b60405180910390fd5b600782815481106113a1576113a0614afd565b5b9060005260206000200160009054906101000a900473ffffffffffffffffffffffffffffffffffffffff1673ffffffffffffffffffffffffffffffffffffffff166323b872dd86600660009054906101000a900473ffffffffffffffffffffffffffffffffffffffff16606460018661141a9190614bc7565b6114249190614c50565b6040518463ffffffff1660e01b815260040161144293929190614c81565b6020604051808303816000875af1158015611461573d6000803e3d6000fd5b505050506040513d601f19601f8201168201806040525081019061148591906148ea565b6114c4576040517f08c379a00000000000000000000000000000000000000000000000000000000081526004016114bb90615295565b60405180910390fd5b600782815481106114d8576114d7614afd565b5b9060005260206000200160009054906101000a900473ffffffffffffffffffffffffffffffffffffffff1673ffffffffffffffffffffffffffffffffffffffff166323b872dd8685606460638661152f9190614bc7565b6115399190614c50565b6040518463ffffffff1660e01b815260040161155793929190614c81565b6020604051808303816000875af1158015611576573d6000803e3d6000fd5b505050506040513d601f19601f8201168201806040525081019061159a91906148ea565b6115d9576040517f08c379a00000000000000000000000000000000000000000000000000000000081526004016115d090615327565b60405180910390fd5b600260009054906101000a900473ffffffffffffffffffffffffffffffffffffffff1673ffffffffffffffffffffffffffffffffffffffff166336cd52a68a858860016040518563ffffffff1660e01b815260040161163b9493929190615347565b600060405180830381600087803b15801561165557600080fd5b505af1158015611669573d6000803e3d6000fd5b505050506000600260009054906101000a900473ffffffffffffffffffffffffffffffffffffffff1673ffffffffffffffffffffffffffffffffffffffff1662fdd58e858c6040518363ffffffff1660e01b81526004016116cb929190614a15565b602060405180830381865afa1580156116e8573d6000803e3d6000fd5b505050506040513d601f19601f8201168201806040525081019061170c9190614a3e565b90506000811415611a13576000600a60008c81526020019081526020016000206006016001600a60008e8152602001908152602001600020600601805490506117559190614cfd565b8154811061176657611765614afd565b5b9060005260206000200160009054906101000a900473ffffffffffffffffffffffffffffffffffffffff16905080600a60008d81526020019081526020016000206006016000815481106117bd576117bc614afd565b5b9060005260206000200160006101000a81548173ffffffffffffffffffffffffffffffffffffffff021916908373ffffffffffffffffffffffffffffffffffffffff160217905550600a60008c815260200190815260200160002060060180548061182b5761182a614d31565b5b6001900381819060005260206000200160006101000a81549073ffffffffffffffffffffffffffffffffffffffff02191690559055600360009054906101000a900473ffffffffffffffffffffffffffffffffffffffff1673ffffffffffffffffffffffffffffffffffffffff16635fe0ac3a8c60016040518363ffffffff1660e01b81526004016118be929190614deb565b600060405180830381600087803b1580156118d857600080fd5b505af11580156118ec573d6000803e3d6000fd5b50505050600360009054906101000a900473ffffffffffffffffffffffffffffffffffffffff1673ffffffffffffffffffffffffffffffffffffffff16631923167e8c6001846040518463ffffffff1660e01b81526004016119509392919061538c565b600060405180830381600087803b15801561196a57600080fd5b505af115801561197e573d6000803e3d6000fd5b50505050600360009054906101000a900473ffffffffffffffffffffffffffffffffffffffff1673ffffffffffffffffffffffffffffffffffffffff16631b0131e88c876040518363ffffffff1660e01b81526004016119df92919061506a565b600060405180830381600087803b1580156119f957600080fd5b505af1158015611a0d573d6000803e3d6000fd5b50505050505b600a60008b8152602001908152602001600020600601869080600181540180825580915050600190039060005260206000200160009091909190916101000a81548173ffffffffffffffffffffffffffffffffffffffff021916908373ffffffffffffffffffffffffffffffffffffffff160217905550600360009054906101000a900473ffffffffffffffffffffffffffffffffffffffff1673ffffffffffffffffffffffffffffffffffffffff16631923167e8b600a60008e815260200190815260200160002060060180549050896040518463ffffffff1660e01b8152600401611b02939291906153c3565b600060405180830381600087803b158015611b1c57600080fd5b505af1158015611b30573d6000803e3d6000fd5b50505050611b3c613a91565b945050505050505050505050565b60606000611b586000613793565b67ffffffffffffffff811115611b7157611b70613ff4565b5b604051908082528060200260200182016040528015611baa57816020015b611b97613aee565b815260200190600190039081611b8f5790505b50905060005b611bba6000613793565b811015611e7257600a60008281526020019081526020016000206040518060e0016040529081600082015481526020016001820154815260200160028201548152602001600382018054611c0d90615429565b80601f0160208091040260200160405190810160405280929190818152602001828054611c3990615429565b8015611c865780601f10611c5b57610100808354040283529160200191611c86565b820191906000526020600020905b815481529060010190602001808311611c6957829003601f168201915b50505050508152602001600482018054611c9f90615429565b80601f0160208091040260200160405190810160405280929190818152602001828054611ccb90615429565b8015611d185780601f10611ced57610100808354040283529160200191611d18565b820191906000526020600020905b815481529060010190602001808311611cfb57829003601f168201915b50505050508152602001600582018054611d3190615429565b80601f0160208091040260200160405190810160405280929190818152602001828054611d5d90615429565b8015611daa5780601f10611d7f57610100808354040283529160200191611daa565b820191906000526020600020905b815481529060010190602001808311611d8d57829003601f168201915b5050505050815260200160068201805480602002602001604051908101604052809291908181526020018280548015611e3857602002820191906000526020600020905b8160009054906101000a900473ffffffffffffffffffffffffffffffffffffffff1673ffffffffffffffffffffffffffffffffffffffff1681526020019060010190808311611dee575b505050505081525050828281518110611e5457611e53614afd565b5b60200260200101819052508080611e6a9061545b565b915050611bb0565b508091505090565b600060078281548110611e9057611e8f614afd565b5b9060005260206000200160009054906101000a900473ffffffffffffffffffffffffffffffffffffffff169050919050565b82611ecd6000613793565b8110611f0e576040517f08c379a0000000000000000000000000000000000000000000000000000000008152600401611f0590614ec0565b60405180910390fd5b836002600a60008381526020019081526020016000206002015414611f68576040517f08c379a0000000000000000000000000000000000000000000000000000000008152600401611f5f906154f0565b60405180910390fd5b6000600460009054906101000a900473ffffffffffffffffffffffffffffffffffffffff1673ffffffffffffffffffffffffffffffffffffffff166301f3b0be876040518263ffffffff1660e01b8152600401611fc59190614601565b60c060405180830381865afa158015611fe2573d6000803e3d6000fd5b505050506040513d601f19601f820116820180604052508101906120069190614851565b90506000816080015190506000600260009054906101000a900473ffffffffffffffffffffffffffffffffffffffff1673ffffffffffffffffffffffffffffffffffffffff1662fdd58e838a6040518363ffffffff1660e01b815260040161206f929190614a15565b602060405180830381865afa15801561208c573d6000803e3d6000fd5b505050506040513d601f19601f820116820180604052508101906120b09190614a3e565b9050868110156120f5576040517f08c379a00000000000000000000000000000000000000000000000000000000081526004016120ec90615582565b60405180910390fd5b8260a001511561213a576040517f08c379a0000000000000000000000000000000000000000000000000000000008152600401612131906149f5565b60405180910390fd5b3373ffffffffffffffffffffffffffffffffffffffff16836080015173ffffffffffffffffffffffffffffffffffffffff1614156121ad576040517f08c379a00000000000000000000000000000000000000000000000000000000081526004016121a4906155ee565b60405180910390fd5b86836040015110156121f4576040517f08c379a00000000000000000000000000000000000000000000000000000000081526004016121eb90615680565b60405180910390fd5b858360000151111561223b576040517f08c379a000000000000000000000000000000000000000000000000000000000815260040161223290615712565b60405180910390fd5b600560009054906101000a900473ffffffffffffffffffffffffffffffffffffffff1673ffffffffffffffffffffffffffffffffffffffff166322cf76f88984338b8b6040518663ffffffff1660e01b815260040161229e959493929190615732565b600060405180830381600087803b1580156122b857600080fd5b505af11580156122cc573d6000803e3d6000fd5b505050506122d86139b9565b92505050505050505050565b8460088054905081106122f657600080fd5b8460200151600780549050811061230c57600080fd5b33600660009054906101000a900473ffffffffffffffffffffffffffffffffffffffff1673ffffffffffffffffffffffffffffffffffffffff168173ffffffffffffffffffffffffffffffffffffffff16141561239e576040517f08c379a0000000000000000000000000000000000000000000000000000000008152600401612395906145d2565b60405180910390fd5b60008760000151116123e5576040517f08c379a00000000000000000000000000000000000000000000000000000000081526004016123dc906157d1565b60405180910390fd5b600087604001511161242c576040517f08c379a000000000000000000000000000000000000000000000000000000000815260040161242390615863565b60405180910390fd5b600187606001511015612474576040517f08c379a000000000000000000000000000000000000000000000000000000000815260040161246b906158cf565b60405180910390fd5b6000339050600061248f338a604001518c60028c8c8c6137a1565b9050600460009054906101000a900473ffffffffffffffffffffffffffffffffffffffff1673ffffffffffffffffffffffffffffffffffffffff16635ea437c1828b8560006040518563ffffffff1660e01b81526004016124f39493929190615944565b600060405180830381600087803b15801561250d57600080fd5b505af1158015612521573d6000803e3d6000fd5b50505050600460009054906101000a900473ffffffffffffffffffffffffffffffffffffffff1673ffffffffffffffffffffffffffffffffffffffff1663746fe2fd828460016040518463ffffffff1660e01b815260040161258593929190614da5565b600060405180830381600087803b15801561259f57600080fd5b505af11580156125b3573d6000803e3d6000fd5b505050507fdb1fd9bae40110b73b6592270632b19e60d204d52ee5cd72c60d076e6bdd342f816040516125e69190614601565b60405180910390a150505050505050505050565b80600780549050811061260c57600080fd5b33600660009054906101000a900473ffffffffffffffffffffffffffffffffffffffff1673ffffffffffffffffffffffffffffffffffffffff168173ffffffffffffffffffffffffffffffffffffffff16141561269e576040517f08c379a0000000000000000000000000000000000000000000000000000000008152600401612695906145d2565b60405180910390fd5b83600784815481106126b3576126b2614afd565b5b9060005260206000200160009054906101000a900473ffffffffffffffffffffffffffffffffffffffff1673ffffffffffffffffffffffffffffffffffffffff166370a08231336040518263ffffffff1660e01b81526004016127169190613f81565b602060405180830381865afa158015612733573d6000803e3d6000fd5b505050506040513d601f19601f820116820180604052508101906127579190614a3e565b1015612798576040517f08c379a000000000000000000000000000000000000000000000000000000000815260040161278f90614b78565b60405180910390fd5b600783815481106127ac576127ab614afd565b5b9060005260206000200160009054906101000a900473ffffffffffffffffffffffffffffffffffffffff1673ffffffffffffffffffffffffffffffffffffffff166323b872dd33600660009054906101000a900473ffffffffffffffffffffffffffffffffffffffff1660646001896128259190614bc7565b61282f9190614c50565b6040518463ffffffff1660e01b815260040161284d93929190614c81565b6020604051808303816000875af115801561286c573d6000803e3d6000fd5b505050506040513d601f19601f8201168201806040525081019061289091906148ea565b50600783815481106128a5576128a4614afd565b5b9060005260206000200160009054906101000a900473ffffffffffffffffffffffffffffffffffffffff1673ffffffffffffffffffffffffffffffffffffffff166323b872dd338760646063896128fc9190614bc7565b6129069190614c50565b6040518463ffffffff1660e01b815260040161292493929190614c81565b6020604051808303816000875af1158015612943573d6000803e3d6000fd5b505050506040513d601f19601f8201168201806040525081019061296791906148ea565b505050505050565b6000600660009054906101000a900473ffffffffffffffffffffffffffffffffffffffff16905090565b6129a1613aee565b600a60008381526020019081526020016000206040518060e00160405290816000820154815260200160018201548152602001600282015481526020016003820180546129ed90615429565b80601f0160208091040260200160405190810160405280929190818152602001828054612a1990615429565b8015612a665780601f10612a3b57610100808354040283529160200191612a66565b820191906000526020600020905b815481529060010190602001808311612a4957829003601f168201915b50505050508152602001600482018054612a7f90615429565b80601f0160208091040260200160405190810160405280929190818152602001828054612aab90615429565b8015612af85780601f10612acd57610100808354040283529160200191612af8565b820191906000526020600020905b815481529060010190602001808311612adb57829003601f168201915b50505050508152602001600582018054612b1190615429565b80601f0160208091040260200160405190810160405280929190818152602001828054612b3d90615429565b8015612b8a5780601f10612b5f57610100808354040283529160200191612b8a565b820191906000526020600020905b815481529060010190602001808311612b6d57829003601f168201915b5050505050815260200160068201805480602002602001604051908101604052809291908181526020018280548015612c1857602002820191906000526020600020905b8160009054906101000a900473ffffffffffffffffffffffffffffffffffffffff1673ffffffffffffffffffffffffffffffffffffffff1681526020019060010190808311612bce575b5050505050815250509050919050565b81612c336000613793565b8110612c74576040517f08c379a0000000000000000000000000000000000000000000000000000000008152600401612c6b90614ec0565b60405180910390fd5b826001600a60008381526020019081526020016000206002015414612cce576040517f08c379a0000000000000000000000000000000000000000000000000000000008152600401612cc590614f52565b60405180910390fd5b33600660009054906101000a900473ffffffffffffffffffffffffffffffffffffffff1673ffffffffffffffffffffffffffffffffffffffff168173ffffffffffffffffffffffffffffffffffffffff161415612d60576040517f08c379a0000000000000000000000000000000000000000000000000000000008152600401612d57906145d2565b60405180910390fd5b60003390506000600360009054906101000a900473ffffffffffffffffffffffffffffffffffffffff1673ffffffffffffffffffffffffffffffffffffffff1663e9ae5929886040518263ffffffff1660e01b8152600401612dc29190614601565b61010060405180830381865afa158015612de0573d6000803e3d6000fd5b505050506040513d601f19601f82011682018060405250810190612e04919061503c565b9050600081602001519050600082600001519050600360009054906101000a900473ffffffffffffffffffffffffffffffffffffffff1673ffffffffffffffffffffffffffffffffffffffff1663fec4d15d8a866040518363ffffffff1660e01b8152600401612e7592919061506a565b602060405180830381865afa158015612e92573d6000803e3d6000fd5b505050506040513d601f19601f82011682018060405250810190612eb691906148ea565b15612ef6576040517f08c379a0000000000000000000000000000000000000000000000000000000008152600401612eed906159d5565b60405180910390fd5b600360009054906101000a900473ffffffffffffffffffffffffffffffffffffffff1673ffffffffffffffffffffffffffffffffffffffff1663be8dbea68a866040518363ffffffff1660e01b8152600401612f5392919061506a565b602060405180830381865afa158015612f70573d6000803e3d6000fd5b505050506040513d601f19601f82011682018060405250810190612f9491906148ea565b15612fd4576040517f08c379a0000000000000000000000000000000000000000000000000000000008152600401612fcb90615105565b60405180910390fd5b600360009054906101000a900473ffffffffffffffffffffffffffffffffffffffff1673ffffffffffffffffffffffffffffffffffffffff1663be8dbea68a8a6040518363ffffffff1660e01b815260040161303192919061506a565b602060405180830381865afa15801561304e573d6000803e3d6000fd5b505050506040513d601f19601f8201168201806040525081019061307291906148ea565b6130b1576040517f08c379a00000000000000000000000000000000000000000000000000000000081526004016130a890615a67565b60405180910390fd5b80600783815481106130c6576130c5614afd565b5b9060005260206000200160009054906101000a900473ffffffffffffffffffffffffffffffffffffffff1673ffffffffffffffffffffffffffffffffffffffff166370a08231866040518263ffffffff1660e01b81526004016131299190613f81565b602060405180830381865afa158015613146573d6000803e3d6000fd5b505050506040513d601f19601f8201168201806040525081019061316a9190614a3e565b10156131ab576040517f08c379a00000000000000000000000000000000000000000000000000000000081526004016131a290614b78565b60405180910390fd5b600782815481106131bf576131be614afd565b5b9060005260206000200160009054906101000a900473ffffffffffffffffffffffffffffffffffffffff1673ffffffffffffffffffffffffffffffffffffffff166323b872dd85600660009054906101000a900473ffffffffffffffffffffffffffffffffffffffff1660646001866132389190614bc7565b6132429190614c50565b6040518463ffffffff1660e01b815260040161326093929190614c81565b6020604051808303816000875af115801561327f573d6000803e3d6000fd5b505050506040513d601f19601f820116820180604052508101906132a391906148ea565b50600782815481106132b8576132b7614afd565b5b9060005260206000200160009054906101000a900473ffffffffffffffffffffffffffffffffffffffff1673ffffffffffffffffffffffffffffffffffffffff166323b872dd858a606460638661330f9190614bc7565b6133199190614c50565b6040518463ffffffff1660e01b815260040161333793929190614c81565b6020604051808303816000875af1158015613356573d6000803e3d6000fd5b505050506040513d601f19601f8201168201806040525081019061337a91906148ea565b50600360009054906101000a900473ffffffffffffffffffffffffffffffffffffffff1673ffffffffffffffffffffffffffffffffffffffff166316dd08918a866040518363ffffffff1660e01b81526004016133d892919061506a565b600060405180830381600087803b1580156133f257600080fd5b505af1158015613406573d6000803e3d6000fd5b50505050613412613a91565b9250505050505050505050565b84600880549050811061343157600080fd5b8460200151600780549050811061344757600080fd5b8560600151600780549050811061345d57600080fd5b33600660009054906101000a900473ffffffffffffffffffffffffffffffffffffffff1673ffffffffffffffffffffffffffffffffffffffff168173ffffffffffffffffffffffffffffffffffffffff1614156134ef576040517f08c379a00000000000000000000000000000000000000000000000000000000081526004016134e6906145d2565b60405180910390fd5b6000886000015111613536576040517f08c379a000000000000000000000000000000000000000000000000000000000815260040161352d90615ad3565b60405180910390fd5b600088604001511161357d576040517f08c379a000000000000000000000000000000000000000000000000000000000815260040161357490615b3f565b60405180910390fd5b60008860800151116135c4576040517f08c379a00000000000000000000000000000000000000000000000000000000081526004016135bb90615bd1565b60405180910390fd5b60018860a00151101561360c576040517f08c379a0000000000000000000000000000000000000000000000000000000008152600401613603906158cf565b60405180910390fd5b60003390506000613627338b608001518d60018d8d8d6137a1565b9050600360009054906101000a900473ffffffffffffffffffffffffffffffffffffffff1673ffffffffffffffffffffffffffffffffffffffff166346f1b7a1828c8560006040518563ffffffff1660e01b815260040161368b9493929190615c6c565b600060405180830381600087803b1580156136a557600080fd5b505af11580156136b9573d6000803e3d6000fd5b50505050600360009054906101000a900473ffffffffffffffffffffffffffffffffffffffff1673ffffffffffffffffffffffffffffffffffffffff16631923167e826001856040518463ffffffff1660e01b815260040161371d9392919061538c565b600060405180830381600087803b15801561373757600080fd5b505af115801561374b573d6000803e3d6000fd5b505050507fdb1fd9bae40110b73b6592270632b19e60d204d52ee5cd72c60d076e6bdd342f8160405161377e9190614601565b60405180910390a15050505050505050505050565b600081600001549050919050565b6000806137ae6000613793565b90506137ba60006139a3565b80600a60008381526020019081526020016000206000018190555086600a60008381526020019081526020016000206001018190555085600a60008381526020019081526020016000206002018190555084600a60008381526020019081526020016000206003019080519060200190613835929190613b2b565b5083600a60008381526020019081526020016000206004019080519060200190613860929190613b2b565b5082600a6000838152602001908152602001600020600501908051906020019061388b929190613b2b565b50600a6000828152602001908152602001600020600601899080600181540180825580915050600190039060005260206000200160009091909190916101000a81548173ffffffffffffffffffffffffffffffffffffffff021916908373ffffffffffffffffffffffffffffffffffffffff160217905550600260009054906101000a900473ffffffffffffffffffffffffffffffffffffffff1673ffffffffffffffffffffffffffffffffffffffff1663156e29f68a838b6040518463ffffffff1660e01b815260040161396293929190615cb3565b600060405180830381600087803b15801561397c57600080fd5b505af1158015613990573d6000803e3d6000fd5b5050505080915050979650505050505050565b6001816000016000828254019250508190555050565b6040518060c0016040528060008152602001600081526020016000815260200160008152602001600073ffffffffffffffffffffffffffffffffffffffff1681526020016000151581525090565b6040518061012001604052806000815260200160008152602001600073ffffffffffffffffffffffffffffffffffffffff168152602001600073ffffffffffffffffffffffffffffffffffffffff168152602001600081526020016000815260200160006002811115613a7d57613a7c615cea565b5b815260200160008152602001600081525090565b604051806101000160405280600081526020016000815260200160008152602001600081526020016000815260200160008152602001600073ffffffffffffffffffffffffffffffffffffffff1681526020016000151581525090565b6040518060e00160405280600081526020016000815260200160008152602001606081526020016060815260200160608152602001606081525090565b828054613b3790615429565b90600052602060002090601f016020900481019282613b595760008555613ba0565b82601f10613b7257805160ff1916838001178555613ba0565b82800160010185558215613ba0579182015b82811115613b9f578251825591602001919060010190613b84565b5b509050613bad9190613bb1565b5090565b5b80821115613bca576000816000905550600101613bb2565b5090565b6000604051905090565b600080fd5b600080fd5b6000819050919050565b613bf581613be2565b8114613c0057600080fd5b50565b600081359050613c1281613bec565b92915050565b600060208284031215613c2e57613c2d613bd8565b5b6000613c3c84828501613c03565b91505092915050565b600081519050919050565b600082825260208201905092915050565b6000819050602082019050919050565b613c7a81613be2565b82525050565b600081519050919050565b600082825260208201905092915050565b60005b83811015613cba578082015181840152602081019050613c9f565b83811115613cc9576000848401525b50505050565b6000601f19601f8301169050919050565b6000613ceb82613c80565b613cf58185613c8b565b9350613d05818560208601613c9c565b613d0e81613ccf565b840191505092915050565b600081519050919050565b600082825260208201905092915050565b6000819050602082019050919050565b600073ffffffffffffffffffffffffffffffffffffffff82169050919050565b6000613d7082613d45565b9050919050565b613d8081613d65565b82525050565b6000613d928383613d77565b60208301905092915050565b6000602082019050919050565b6000613db682613d19565b613dc08185613d24565b9350613dcb83613d35565b8060005b83811015613dfc578151613de38882613d86565b9750613dee83613d9e565b925050600181019050613dcf565b5085935050505092915050565b600060e083016000830151613e216000860182613c71565b506020830151613e346020860182613c71565b506040830151613e476040860182613c71565b5060608301518482036060860152613e5f8282613ce0565b91505060808301518482036080860152613e798282613ce0565b91505060a083015184820360a0860152613e938282613ce0565b91505060c083015184820360c0860152613ead8282613dab565b9150508091505092915050565b6000613ec68383613e09565b905092915050565b6000602082019050919050565b6000613ee682613c45565b613ef08185613c50565b935083602082028501613f0285613c61565b8060005b85811015613f3e5784840389528151613f1f8582613eba565b9450613f2a83613ece565b925060208a01995050600181019050613f06565b50829750879550505050505092915050565b60006020820190508181036000830152613f6a8184613edb565b905092915050565b613f7b81613d65565b82525050565b6000602082019050613f966000830184613f72565b92915050565b600080600060608486031215613fb557613fb4613bd8565b5b6000613fc386828701613c03565b9350506020613fd486828701613c03565b9250506040613fe586828701613c03565b9150509250925092565b600080fd5b7f4e487b7100000000000000000000000000000000000000000000000000000000600052604160045260246000fd5b61402c82613ccf565b810181811067ffffffffffffffff8211171561404b5761404a613ff4565b5b80604052505050565b600061405e613bce565b905061406a8282614023565b919050565b60006080828403121561408557614084613fef565b5b61408f6080614054565b9050600061409f84828501613c03565b60008301525060206140b384828501613c03565b60208301525060406140c784828501613c03565b60408301525060606140db84828501613c03565b60608301525092915050565b600080fd5b600080fd5b600067ffffffffffffffff82111561410c5761410b613ff4565b5b61411582613ccf565b9050602081019050919050565b82818337600083830152505050565b600061414461413f846140f1565b614054565b9050828152602081018484840111156141605761415f6140ec565b5b61416b848285614122565b509392505050565b600082601f830112614188576141876140e7565b5b8135614198848260208601614131565b91505092915050565b600080600080600061010086880312156141be576141bd613bd8565b5b60006141cc88828901613c03565b95505060206141dd8882890161406f565b94505060a086013567ffffffffffffffff8111156141fe576141fd613bdd565b5b61420a88828901614173565b93505060c086013567ffffffffffffffff81111561422b5761422a613bdd565b5b61423788828901614173565b92505060e086013567ffffffffffffffff81111561425857614257613bdd565b5b61426488828901614173565b9150509295509295909350565b61427a81613d65565b811461428557600080fd5b50565b60008135905061429781614271565b92915050565b6000806000606084860312156142b6576142b5613bd8565b5b60006142c486828701614288565b93505060206142d586828701613c03565b92505060406142e686828701613c03565b9150509250925092565b600060e0830160008301516143086000860182613c71565b50602083015161431b6020860182613c71565b50604083015161432e6040860182613c71565b50606083015184820360608601526143468282613ce0565b915050608083015184820360808601526143608282613ce0565b91505060a083015184820360a086015261437a8282613ce0565b91505060c083015184820360c08601526143948282613dab565b9150508091505092915050565b600060208201905081810360008301526143bb81846142f0565b905092915050565b600080604083850312156143da576143d9613bd8565b5b60006143e885828601613c03565b92505060206143f985828601614288565b9150509250929050565b600060c0828403121561441957614418613fef565b5b61442360c0614054565b9050600061443384828501613c03565b600083015250602061444784828501613c03565b602083015250604061445b84828501613c03565b604083015250606061446f84828501613c03565b606083015250608061448384828501613c03565b60808301525060a061449784828501613c03565b60a08301525092915050565b600080600080600061014086880312156144c0576144bf613bd8565b5b60006144ce88828901613c03565b95505060206144df88828901614403565b94505060e086013567ffffffffffffffff811115614500576144ff613bdd565b5b61450c88828901614173565b93505061010086013567ffffffffffffffff81111561452e5761452d613bdd565b5b61453a88828901614173565b92505061012086013567ffffffffffffffff81111561455c5761455b613bdd565b5b61456888828901614173565b9150509295509295909350565b600082825260208201905092915050565b7f596f757220617265206f776e6572206f6620636f6e7472616374000000000000600082015250565b60006145bc601a83614575565b91506145c782614586565b602082019050919050565b600060208201905081810360008301526145eb816145af565b9050919050565b6145fb81613be2565b82525050565b600060208201905061461660008301846145f2565b92915050565b60008151905061462b81613bec565b92915050565b60008151905061464081614271565b92915050565b6003811061465357600080fd5b50565b60008151905061466581614646565b92915050565b6000610120828403121561468257614681613fef565b5b61468d610120614054565b9050600061469d8482850161461c565b60008301525060206146b18482850161461c565b60208301525060406146c584828501614631565b60408301525060606146d984828501614631565b60608301525060806146ed8482850161461c565b60808301525060a06147018482850161461c565b60a08301525060c061471584828501614656565b60c08301525060e06147298482850161461c565b60e08301525061010061473e8482850161461c565b6101008301525092915050565b6000610120828403121561476257614761613bd8565b5b60006147708482850161466b565b91505092915050565b60008115159050919050565b61478e81614779565b811461479957600080fd5b50565b6000815190506147ab81614785565b92915050565b600060c082840312156147c7576147c6613fef565b5b6147d160c0614054565b905060006147e18482850161461c565b60008301525060206147f58482850161461c565b60208301525060406148098482850161461c565b604083015250606061481d8482850161461c565b606083015250608061483184828501614631565b60808301525060a06148458482850161479c565b60a08301525092915050565b600060c0828403121561486757614866613bd8565b5b6000614875848285016147b1565b91505092915050565b7f596f752063616e27742061636365707420746869732062696400000000000000600082015250565b60006148b4601983614575565b91506148bf8261487e565b602082019050919050565b600060208201905081810360008301526148e3816148a7565b9050919050565b600060208284031215614900576148ff613bd8565b5b600061490e8482850161479c565b91505092915050565b7f546869732062696420697320616c726561647920636865636b65642e00000000600082015250565b600061494d601c83614575565b915061495882614917565b602082019050919050565b6000602082019050818103600083015261497c81614940565b9050919050565b7f416c6c207468657365206e6674732068617665206265656e20736f6c64206f7560008201527f7400000000000000000000000000000000000000000000000000000000000000602082015250565b60006149df602183614575565b91506149ea82614983565b604082019050919050565b60006020820190508181036000830152614a0e816149d2565b9050919050565b6000604082019050614a2a6000830185613f72565b614a3760208301846145f2565b9392505050565b600060208284031215614a5457614a53613bd8565b5b6000614a628482850161461c565b91505092915050565b7f42696420616d6f756e7420697320686967686572207468616e20796f7572206260008201527f616c616e63650000000000000000000000000000000000000000000000000000602082015250565b6000614ac7602683614575565b9150614ad282614a6b565b604082019050919050565b60006020820190508181036000830152614af681614aba565b9050919050565b7f4e487b7100000000000000000000000000000000000000000000000000000000600052603260045260246000fd5b7f42757965722068617665206e6f7420656e6f7567682062616c616e6365000000600082015250565b6000614b62601d83614575565b9150614b6d82614b2c565b602082019050919050565b60006020820190508181036000830152614b9181614b55565b9050919050565b7f4e487b7100000000000000000000000000000000000000000000000000000000600052601160045260246000fd5b6000614bd282613be2565b9150614bdd83613be2565b9250817fffffffffffffffffffffffffffffffffffffffffffffffffffffffffffffffff0483118215151615614c1657614c15614b98565b5b828202905092915050565b7f4e487b7100000000000000000000000000000000000000000000000000000000600052601260045260246000fd5b6000614c5b82613be2565b9150614c6683613be2565b925082614c7657614c75614c21565b5b828204905092915050565b6000606082019050614c966000830186613f72565b614ca36020830185613f72565b614cb060408301846145f2565b949350505050565b6000608082019050614ccd60008301876145f2565b614cda6020830186613f72565b614ce76040830185613f72565b614cf460608301846145f2565b95945050505050565b6000614d0882613be2565b9150614d1383613be2565b925082821015614d2657614d25614b98565b5b828203905092915050565b7f4e487b7100000000000000000000000000000000000000000000000000000000600052603160045260246000fd5b6000819050919050565b6000819050919050565b6000614d8f614d8a614d8584614d60565b614d6a565b613be2565b9050919050565b614d9f81614d74565b82525050565b6000606082019050614dba60008301866145f2565b614dc76020830185613f72565b614dd46040830184614d96565b949350505050565b614de581614779565b82525050565b6000604082019050614e0060008301856145f2565b614e0d6020830184614ddc565b9392505050565b6000606082019050614e2960008301866145f2565b614e366020830185613f72565b614e4360408301846145f2565b949350505050565b6000604082019050614e6060008301856145f2565b614e6d60208301846145f2565b9392505050565b7f4e667420696420697320696e76616c6964000000000000000000000000000000600082015250565b6000614eaa601183614575565b9150614eb582614e74565b602082019050919050565b60006020820190508181036000830152614ed981614e9d565b9050919050565b7f54686973206e667420707269636520747970652069736e2774206c6567656e6460008201527f6172790000000000000000000000000000000000000000000000000000000000602082015250565b6000614f3c602383614575565b9150614f4782614ee0565b604082019050919050565b60006020820190508181036000830152614f6b81614f2f565b9050919050565b60006101008284031215614f8957614f88613fef565b5b614f94610100614054565b90506000614fa48482850161461c565b6000830152506020614fb88482850161461c565b6020830152506040614fcc8482850161461c565b6040830152506060614fe08482850161461c565b6060830152506080614ff48482850161461c565b60808301525060a06150088482850161461c565b60a08301525060c061501c84828501614631565b60c08301525060e06150308482850161479c565b60e08301525092915050565b6000610100828403121561505357615052613bd8565b5b600061506184828501614f72565b91505092915050565b600060408201905061507f60008301856145f2565b61508c6020830184613f72565b9392505050565b7f596f75206861766520616c726561647920726573656c6c657220726f6c65206160008201527f626f75742074686973206e667400000000000000000000000000000000000000602082015250565b60006150ef602d83614575565b91506150fa82615093565b604082019050919050565b6000602082019050818103600083015261511e816150e2565b9050919050565b7f416c6c207468657365206e667473206861766520616c7265616479206265656e60008201527f20736f6c6420746f20726573656c6c6572730000000000000000000000000000602082015250565b6000615181603283614575565b915061518c82615125565b604082019050919050565b600060208201905081810360008301526151b081615174565b9050919050565b7f526573656c6c65722068617665206e6f7420656e6f7567682062616c616e6365600082015250565b60006151ed602083614575565b91506151f8826151b7565b602082019050919050565b6000602082019050818103600083015261521c816151e0565b9050919050565b7f4661696c656420746f2073656e642066726f6d20627579657220746f206d617260008201527f6b6574706c616365000000000000000000000000000000000000000000000000602082015250565b600061527f602883614575565b915061528a82615223565b604082019050919050565b600060208201905081810360008301526152ae81615272565b9050919050565b7f4661696c656420746f2073656e642066726f6d20627579657220746f2063726560008201527f61746f7200000000000000000000000000000000000000000000000000000000602082015250565b6000615311602483614575565b915061531c826152b5565b604082019050919050565b6000602082019050818103600083015261534081615304565b9050919050565b600060808201905061535c60008301876145f2565b6153696020830186613f72565b6153766040830185613f72565b6153836060830184614d96565b95945050505050565b60006060820190506153a160008301866145f2565b6153ae6020830185614d96565b6153bb6040830184613f72565b949350505050565b60006060820190506153d860008301866145f2565b6153e560208301856145f2565b6153f26040830184613f72565b949350505050565b7f4e487b7100000000000000000000000000000000000000000000000000000000600052602260045260246000fd5b6000600282049050600182168061544157607f821691505b60208210811415615455576154546153fa565b5b50919050565b600061546682613be2565b91507fffffffffffffffffffffffffffffffffffffffffffffffffffffffffffffffff82141561549957615498614b98565b5b600182019050919050565b7f54686973206e667420707269636520747970652069736e277420726172650000600082015250565b60006154da601e83614575565b91506154e5826154a4565b602082019050919050565b60006020820190508181036000830152615509816154cd565b9050919050565b7f42696420707269636520697320686967686572207468616e2062616c616e636560008201527f206f662063726561746f72000000000000000000000000000000000000000000602082015250565b600061556c602b83614575565b915061557782615510565b604082019050919050565b6000602082019050818103600083015261559b8161555f565b9050919050565b7f596f75206172652063726561746f72206f662074686973206e66740000000000600082015250565b60006155d8601b83614575565b91506155e3826155a2565b602082019050919050565b60006020820190508181036000830152615607816155cb565b9050919050565b7f416d6f756e7420697320686967686572207468616e2023206f66206974656d2060008201527f617661696c61626c650000000000000000000000000000000000000000000000602082015250565b600061566a602983614575565b91506156758261560e565b604082019050919050565b600060208201905081810360008301526156998161565d565b9050919050565b7f426964207072696365206973206c6f776572207468616e206d696e696d756d2060008201527f6269642070726963650000000000000000000000000000000000000000000000602082015250565b60006156fc602983614575565b9150615707826156a0565b604082019050919050565b6000602082019050818103600083015261572b816156ef565b9050919050565b600060a08201905061574760008301886145f2565b6157546020830187613f72565b6157616040830186613f72565b61576e60608301856145f2565b61577b60808301846145f2565b9695505050505050565b7f4d696e696d756d2062696420707269636520697320746f6f206c6f7700000000600082015250565b60006157bb601c83614575565b91506157c682615785565b602082019050919050565b600060208201905081810360008301526157ea816157ae565b9050919050565b7f23206f66204974656d20617661696c61626c652073686f756c6420626520626960008201527f67676572207468616e2030000000000000000000000000000000000000000000602082015250565b600061584d602b83614575565b9150615858826157f1565b604082019050919050565b6000602082019050818103600083015261587c81615840565b9050919050565b7f526f79616c74792073686f756c6420626520626967676572207468616e203100600082015250565b60006158b9601f83614575565b91506158c482615883565b602082019050919050565b600060208201905081810360008301526158e8816158ac565b9050919050565b6080820160008201516159056000850182613c71565b5060208201516159186020850182613c71565b50604082015161592b6040850182613c71565b50606082015161593e6060850182613c71565b50505050565b600060e08201905061595960008301876145f2565b61596660208301866158ef565b61597360a0830185613f72565b61598060c0830184614ddc565b95945050505050565b7f596f75206861766520616c726561647920626f756768742074686973206e6674600082015250565b60006159bf602083614575565b91506159ca82615989565b602082019050919050565b600060208201905081810360008301526159ee816159b2565b9050919050565b7f5265636569766572206973206e6f74206f776e6572206f66207468697320707260008201527f6f64756374000000000000000000000000000000000000000000000000000000602082015250565b6000615a51602583614575565b9150615a5c826159f5565b604082019050919050565b60006020820190508181036000830152615a8081615a44565b9050919050565b7f50726f6475637420707269636520697320746f6f206c6f770000000000000000600082015250565b6000615abd601883614575565b9150615ac882615a87565b602082019050919050565b60006020820190508181036000830152615aec81615ab0565b9050919050565b7f5469636b657420707269636520697320746f6f206c6f77000000000000000000600082015250565b6000615b29601783614575565b9150615b3482615af3565b602082019050919050565b60006020820190508181036000830152615b5881615b1c565b9050919050565b7f23206f66205469636b65747320617661696c61626c652073686f756c6420626560008201527f20626967676572207468616e2030000000000000000000000000000000000000602082015250565b6000615bbb602e83614575565b9150615bc682615b5f565b604082019050919050565b60006020820190508181036000830152615bea81615bae565b9050919050565b60c082016000820151615c076000850182613c71565b506020820151615c1a6020850182613c71565b506040820151615c2d6040850182613c71565b506060820151615c406060850182613c71565b506080820151615c536080850182613c71565b5060a0820151615c6660a0850182613c71565b50505050565b600061012082019050615c8260008301876145f2565b615c8f6020830186615bf1565b615c9c60e0830185613f72565b615caa610100830184614ddc565b95945050505050565b6000606082019050615cc86000830186613f72565b615cd560208301856145f2565b615ce260408301846145f2565b949350505050565b7f4e487b7100000000000000000000000000000000000000000000000000000000600052602160045260246000fdfea2646970667358221220c8c9c8afd900ce87a82d8d5134e8ea6e14d074abb8b6951972d08994378641cc64736f6c634300080b0033",
  "immutableReferences": {},
  "source": "// SPDX-License-Identifier: MIT\r\npragma solidity >=0.4.22 <0.9.0;\r\n\r\nimport \"@openzeppelin/contracts/utils/Counters.sol\";\r\nimport \"@openzeppelin/contracts/token/ERC20/IERC20.sol\";\r\n\r\nimport \"./SOLSNFT.sol\" ;\r\nimport \"./SOLSTOKEN.sol\" ;\r\nimport \"./Legendary.sol\" ;\r\nimport \"./Rare.sol\" ;\r\nimport \"./Bid.sol\";\r\n\r\ncontract SOLSMarketplace {\r\n    using Counters for Counters.Counter ;\r\n    Counters.Counter nft_counter ;\r\n\r\n    SOLSTOKEN private SOLT;\r\n    SOLSNFT private SOLN ;\r\n    Legendary private LEGEN ;\r\n    Rare private RARE ;\r\n    Bid private BID ;\r\n\r\n    address marketplace_owner ;\r\n\r\n    address[] private units;\r\n    string[] private product_types = [\"Ebook\",\"Video\",\"Image\",\"Music\"] ;\r\n    string[] private price_types = [\"legendary\", \"rare\"] ;\r\n   \r\n    struct nft {\r\n        uint256 nft_id;\r\n        uint256 product_id ;\r\n        uint256 price_id ;\r\n        string name ;\r\n        string description ;\r\n        string uri ;\r\n        address[] owners;\r\n    }\r\n\r\n    mapping(uint256 => nft) private nfts ;\r\n\r\n    event NFTListed(uint256) ;\r\n\r\n    constructor ( address _SOLT, address _LEGEN, address _RARE, address _BID, address _SOLN ) {\r\n        SOLT = SOLSTOKEN(_SOLT);\r\n        LEGEN = Legendary(_LEGEN) ;\r\n        RARE = Rare(_RARE) ;\r\n        BID = Bid(_BID) ;\r\n        SOLN = SOLSNFT(_SOLN) ;\r\n\r\n        marketplace_owner = msg.sender ;\r\n\r\n        LEGEN.setSolsMarketplaceToLegen(address(this));\r\n        RARE.setSolsMarketplaceToRare(address(this));\r\n        BID.setSolsMarketplaceToBid(address(this)) ;\r\n        SOLN.setSolsMarketplaceToNFT(address(this));\r\n\r\n        units.push(_SOLT) ;\r\n    }\r\n\r\n    function mintNFT(\r\n        address _from,\r\n        uint256 _amount,\r\n        uint256 product_id, \r\n        uint256 price_id,\r\n        string memory name,\r\n        string memory description,\r\n        string memory uri\r\n    ) \r\n    private returns(uint256) {\r\n        uint256 new_nft_id = nft_counter.current();\r\n\r\n        nft_counter.increment() ;\r\n\r\n        nfts[new_nft_id].nft_id = new_nft_id ;\r\n        nfts[new_nft_id].product_id = product_id ;\r\n        nfts[new_nft_id].price_id = price_id ;\r\n        nfts[new_nft_id].name = name ;\r\n        nfts[new_nft_id].description = description ;\r\n        nfts[new_nft_id].uri = uri ;\r\n        nfts[new_nft_id].owners.push(_from) ;\r\n\r\n        SOLN.mint(_from, new_nft_id , _amount);\r\n\r\n        return new_nft_id ;\r\n    }\r\n\r\n    function mintLegendary(\r\n        uint256 product_id,\r\n        Legendary.legen_param memory _legen_param,\r\n        string memory name,\r\n        string memory description,\r\n        string memory uri\r\n    ) external isValidProductId(product_id) isValidUnitId(_legen_param.product_unit) isValidUnitId(_legen_param.ticket_unit) isNotOwner(msg.sender)  {\r\n        require(_legen_param.product_price > 0, \"Product price is too low\");\r\n        require(_legen_param.ticket_price > 0, \"Ticket price is too low\");\r\n        require(_legen_param.ticket_available > 0, \"# of Tickets available should be bigger than 0\") ;\r\n        require(_legen_param.royalty >= 1, \"Royalty should be bigger than 1\") ;\r\n        // require(nft_counter.current() < max_supply, \"mintLegendary: overflow supply\");\r\n\r\n        address creator = msg.sender ;\r\n\r\n        uint256 new_nft_id = mintNFT(msg.sender, _legen_param.ticket_available , product_id , 1, name, description, uri) ;\r\n\r\n        LEGEN.insertLegen(new_nft_id, _legen_param, creator, false);\r\n        LEGEN.updateOwner(new_nft_id, 1,  creator);\r\n        emit NFTListed(new_nft_id) ;\r\n    }\r\n\r\n    function buyLegendaryAsNFT(uint256 nft_id) external isValidNftId(nft_id) isLegendary(nft_id) isNotOwner(msg.sender) {\r\n        address buyer = msg.sender ;\r\n\r\n        Legendary.legendary memory _legen = LEGEN.fetchLegen(nft_id);\r\n        address creator =  _legen.creator;\r\n        uint256 ticket_unit = _legen.ticket_unit ;\r\n        uint256 ticket_price = _legen.ticket_price ;\r\n\r\n        require(!LEGEN.checkOwner(nft_id, buyer), \"You have already reseller role about this nft\") ;\r\n        require(!_legen.sold, \"All these nfts have already been sold to resellers\") ;\r\n        \r\n        require(IERC20(units[ticket_unit]).balanceOf(buyer) >= ticket_price, \"Reseller have not enough balance\");\r\n        \r\n        require(IERC20(units[ticket_unit]).transferFrom(buyer, marketplace_owner, ticket_price * 1 / 100), \"Failed to send from buyer to marketplace\") ;\r\n        require(IERC20(units[ticket_unit]).transferFrom(buyer, creator , ticket_price * (100 - 1) / 100), \"Failed to send from buyer to creator\") ;\r\n\r\n        SOLN.transfer(nft_id, creator, buyer, 1) ;\r\n\r\n        uint256 _balanceOfOwner = SOLN.balanceOf(creator, nft_id); \r\n\r\n        if(_balanceOfOwner == 0) {\r\n            address last_owner = nfts[nft_id].owners[nfts[nft_id].owners.length -1];\r\n\r\n            nfts[nft_id].owners[0] = last_owner ;\r\n            nfts[nft_id].owners.pop() ;\r\n\r\n            LEGEN.updateSold(nft_id, true) ;\r\n            LEGEN.updateOwner(nft_id,  1, last_owner) ;\r\n            LEGEN.deleteOwner(nft_id, creator);\r\n        }\r\n\r\n        nfts[nft_id].owners.push(buyer) ;\r\n        LEGEN.updateOwner(nft_id, nfts[nft_id].owners.length, buyer);\r\n\r\n        delete _legen ;\r\n    }\r\n\r\n    function buyLegendaryAsProduct(uint256 nft_id, address wallet) external isValidNftId(nft_id) isLegendary(nft_id) isNotOwner(msg.sender) {\r\n        address buyer = msg.sender ;\r\n\r\n        Legendary.legendary memory _legen = LEGEN.fetchLegen(nft_id);\r\n        uint256 product_unit = _legen.product_unit ;\r\n        uint256 product_price = _legen.product_price ;\r\n\r\n        require(!LEGEN.checkBuyer(nft_id, buyer), \"You have already bought this nft\") ;\r\n        require(!LEGEN.checkOwner(nft_id, buyer), \"You have already reseller role about this nft\") ;\r\n        require(LEGEN.checkOwner(nft_id, wallet), \"Receiver is not owner of this product\") ;\r\n\r\n        require(IERC20(units[product_unit]).balanceOf(buyer) >= product_price, \"Buyer have not enough balance\");\r\n\r\n        IERC20(units[product_unit]).transferFrom(buyer, marketplace_owner, product_price * 1 / 100);\r\n        IERC20(units[product_unit]).transferFrom(buyer, wallet, product_price * (100 - 1) / 100);\r\n\r\n        LEGEN.updateBuyer(nft_id, buyer);\r\n\r\n        delete _legen ;\r\n    }\r\n\r\n    function mintRare(\r\n        uint256 product_id,\r\n        Rare.rare_param memory _rare_param,\r\n        string memory name,\r\n        string memory description,\r\n        string memory uri\r\n    ) public isValidProductId(product_id) isValidUnitId(_rare_param.bid_unit) isNotOwner(msg.sender) {\r\n        require(_rare_param.minimum_bidding > 0, \"Minimum bid price is too low\");\r\n        require(_rare_param.item_available > 0, \"# of Item available should be bigger than 0\");\r\n        require(_rare_param.royalty >= 1, \"Royalty should be bigger than 1\") ;\r\n\r\n        address creator = msg.sender ;\r\n        uint256 new_nft_id = mintNFT(msg.sender, _rare_param.item_available , product_id, 2, name, description, uri) ;\r\n\r\n        RARE.insertRare(\r\n            new_nft_id,\r\n            _rare_param,\r\n            creator,\r\n            false\r\n        ) ;\r\n\r\n        RARE.updateOwner(new_nft_id, creator, 1);\r\n\r\n        emit NFTListed(new_nft_id) ;\r\n    }\r\n\r\n    function placeBid(uint256 nft_id, uint256 _amount, uint256 _price) external isValidNftId(nft_id) isRare(nft_id) {\r\n        Rare.rare memory _rare = RARE.fetchRare(nft_id);\r\n\r\n        address creator = _rare.creator ;\r\n        uint256 _amount_of_creator = SOLN.balanceOf(creator, nft_id) ;\r\n\r\n        require(_amount_of_creator >= _amount, \"Bid price is higher than balance of creator\") ;\r\n        require(!_rare.sold, \"All these nfts have been sold out\") ;\r\n        require(_rare.creator != msg.sender , \"You are creator of this nft\") ;\r\n        require(_rare.item_available >= _amount, \"Amount is higher than # of item available\") ;\r\n        require(_rare.minimum_bidding <= _price, \"Bid price is lower than minimum bid price\") ;\r\n\r\n        BID.place(nft_id, creator, msg.sender, _amount, _price) ;\r\n\r\n        delete _rare ;\r\n    }\r\n\r\n    function acceptBid(uint256 bid_id) external isNotOwner(msg.sender) {\r\n        Bid.bid memory _bid = BID.fetchBid(bid_id) ;\r\n        Rare.rare memory _rare = RARE.fetchRare(_bid.nft_id);\r\n\r\n        require(_rare.creator == msg.sender, \"You can't accept this bid\") ;\r\n        require(BID.isPending(bid_id), \"This bid is already checked.\") ;\r\n\r\n        address buyer = _bid.to ;\r\n        uint256 nft_id = _bid.nft_id ;\r\n        uint256 _amount = _bid.amount ;\r\n        uint256 _price = _bid.price ;\r\n\r\n        address creator = _rare.creator;\r\n        bool sold = _rare.sold;\r\n\r\n        require(!sold, \"All these nfts have been sold out\") ;\r\n\r\n        uint256 _balanceOfCreator = SOLN.balanceOf(creator, nft_id);\r\n        \r\n        require( _balanceOfCreator >= _amount, 'Bid amount is higher than your balance') ;\r\n\r\n        require(IERC20(units[_rare.bid_unit]).balanceOf(buyer) >= _price , \"Buyer have not enough balance\");\r\n\r\n        IERC20(units[_rare.bid_unit]).transferFrom(buyer, marketplace_owner, _price * 1 / 100);\r\n        IERC20(units[_rare.bid_unit]).transferFrom(buyer, creator, _price * (100 - 1) / 100);\r\n        // onERC1155Received(address(this), buyer, nft_id, _amount, \"\");\r\n        SOLN.transfer(nft_id, creator, buyer, _amount);\r\n\r\n        if(_balanceOfCreator - _amount == 0) {\r\n            address last_owner = nfts[nft_id].owners[nfts[nft_id].owners.length - 1] ;\r\n            \r\n            nfts[nft_id].owners[0] = last_owner ;\r\n            nfts[nft_id].owners.pop() ;\r\n\r\n            RARE.updateOwner(nft_id, last_owner, 1);\r\n            RARE.updateSold(nft_id, true);\r\n        }\r\n\r\n        nfts[nft_id].owners.push(buyer) ;\r\n        RARE.updateOwner(nft_id, buyer, nfts[nft_id].owners.length);\r\n\r\n        BID.accept(bid_id) ;\r\n\r\n        uint256 left_balanceOfCreator = SOLN.balanceOf(creator, nft_id);\r\n\r\n        BID.autoCheck(bid_id, left_balanceOfCreator) ;\r\n\r\n        delete _rare ;\r\n        delete _bid ;\r\n    }\r\n\r\n    function payment(address _to, uint256 price, uint256 price_unit) external  isValidUnitId(price_unit) isNotOwner(msg.sender) {\r\n        require(IERC20(units[price_unit]).balanceOf(msg.sender) >= price , \"Buyer have not enough balance\");\r\n\r\n        IERC20(units[price_unit]).transferFrom(msg.sender, marketplace_owner, price * 1 / 100);\r\n        IERC20(units[price_unit]).transferFrom(msg.sender, _to, price * (100 - 1) / 100);\r\n    }\r\n\r\n    function fetchAllNFTs() external view returns(nft[] memory) {\r\n        nft[] memory _nfts = new nft[](nft_counter.current()) ;\r\n\r\n        for(uint256 i = 0 ; i < nft_counter.current(); i++) {\r\n            _nfts[i] = nfts[i] ;\r\n        }\r\n        \r\n        return _nfts ;\r\n    }\r\n\r\n    function fetchUnitById(uint256 unit_id) external view returns(address) {\r\n        return units[unit_id] ;\r\n    }\r\n    function fetchNFTById(uint256 nft_id) external view returns(nft memory) {\r\n        return nfts[nft_id] ;\r\n    }\r\n    function _marketplace () external view returns(address) {\r\n        return marketplace_owner ;\r\n    }\r\n    modifier isValidNftId(uint256 nft_id) {\r\n        require(nft_id < nft_counter.current(), \"Nft id is invalid\") ;\r\n        _;\r\n    }\r\n    modifier isNotOwner(address account) {\r\n        require(account != marketplace_owner, \"Your are owner of contract\") ;\r\n        _;\r\n    }\r\n    modifier isLegendary(uint256 nft_id) {\r\n        require(nfts[nft_id].price_id == 1, \"This nft price type isn't legendary\");\r\n        _;\r\n    }\r\n    modifier isRare(uint256 nft_id) {\r\n        require(nfts[nft_id].price_id == 2, \"This nft price type isn't rare\");\r\n        _;\r\n    }\r\n    modifier isValidProductId(uint256 product_id) {\r\n        require(product_id < product_types.length) ;\r\n        _;\r\n    }\r\n    modifier isValidUnitId(uint256 unit_id) {\r\n        require(unit_id < units.length) ;\r\n        _;\r\n    }\r\n}\r\n",
  "sourcePath": "E:\\Truffle-Ganache-NFT-Martkeplace\\nft-truffle-contract\\contracts\\SOLSMarketplace.sol",
  "compiler": {
    "name": "solc",
    "version": "0.8.11+commit.d7f03943.Emscripten.clang"
  },
  "schemaVersion": "3.4.4",
  "updatedAt": "2022-06-10T19:57:20.377Z",
  "networkType": "ethereum",
  "devdoc": {
    "kind": "dev",
    "methods": {},
    "version": 1
  },
  "userdoc": {
    "kind": "user",
    "methods": {},
    "version": 1
  }
}