{
  "contractName": "SOLSNFT",
  "abi": [
    {
      "inputs": [],
      "stateMutability": "nonpayable",
      "type": "constructor"
    },
    {
      "anonymous": false,
      "inputs": [
        {
          "indexed": true,
          "internalType": "address",
          "name": "account",
          "type": "address"
        },
        {
          "indexed": true,
          "internalType": "address",
          "name": "operator",
          "type": "address"
        },
        {
          "indexed": false,
          "internalType": "bool",
          "name": "approved",
          "type": "bool"
        }
      ],
      "name": "ApprovalForAll",
      "type": "event"
    },
    {
      "anonymous": false,
      "inputs": [
        {
          "indexed": true,
          "internalType": "address",
          "name": "operator",
          "type": "address"
        },
        {
          "indexed": true,
          "internalType": "address",
          "name": "from",
          "type": "address"
        },
        {
          "indexed": true,
          "internalType": "address",
          "name": "to",
          "type": "address"
        },
        {
          "indexed": false,
          "internalType": "uint256[]",
          "name": "ids",
          "type": "uint256[]"
        },
        {
          "indexed": false,
          "internalType": "uint256[]",
          "name": "values",
          "type": "uint256[]"
        }
      ],
      "name": "TransferBatch",
      "type": "event"
    },
    {
      "anonymous": false,
      "inputs": [
        {
          "indexed": true,
          "internalType": "address",
          "name": "operator",
          "type": "address"
        },
        {
          "indexed": true,
          "internalType": "address",
          "name": "from",
          "type": "address"
        },
        {
          "indexed": true,
          "internalType": "address",
          "name": "to",
          "type": "address"
        },
        {
          "indexed": false,
          "internalType": "uint256",
          "name": "id",
          "type": "uint256"
        },
        {
          "indexed": false,
          "internalType": "uint256",
          "name": "value",
          "type": "uint256"
        }
      ],
      "name": "TransferSingle",
      "type": "event"
    },
    {
      "anonymous": false,
      "inputs": [
        {
          "indexed": false,
          "internalType": "string",
          "name": "value",
          "type": "string"
        },
        {
          "indexed": true,
          "internalType": "uint256",
          "name": "id",
          "type": "uint256"
        }
      ],
      "name": "URI",
      "type": "event"
    },
    {
      "inputs": [
        {
          "internalType": "address",
          "name": "account",
          "type": "address"
        },
        {
          "internalType": "uint256",
          "name": "id",
          "type": "uint256"
        }
      ],
      "name": "balanceOf",
      "outputs": [
        {
          "internalType": "uint256",
          "name": "",
          "type": "uint256"
        }
      ],
      "stateMutability": "view",
      "type": "function",
      "constant": true
    },
    {
      "inputs": [
        {
          "internalType": "address[]",
          "name": "accounts",
          "type": "address[]"
        },
        {
          "internalType": "uint256[]",
          "name": "ids",
          "type": "uint256[]"
        }
      ],
      "name": "balanceOfBatch",
      "outputs": [
        {
          "internalType": "uint256[]",
          "name": "",
          "type": "uint256[]"
        }
      ],
      "stateMutability": "view",
      "type": "function",
      "constant": true
    },
    {
      "inputs": [
        {
          "internalType": "address",
          "name": "account",
          "type": "address"
        },
        {
          "internalType": "address",
          "name": "operator",
          "type": "address"
        }
      ],
      "name": "isApprovedForAll",
      "outputs": [
        {
          "internalType": "bool",
          "name": "",
          "type": "bool"
        }
      ],
      "stateMutability": "view",
      "type": "function",
      "constant": true
    },
    {
      "inputs": [
        {
          "internalType": "address",
          "name": "from",
          "type": "address"
        },
        {
          "internalType": "address",
          "name": "to",
          "type": "address"
        },
        {
          "internalType": "uint256[]",
          "name": "ids",
          "type": "uint256[]"
        },
        {
          "internalType": "uint256[]",
          "name": "amounts",
          "type": "uint256[]"
        },
        {
          "internalType": "bytes",
          "name": "data",
          "type": "bytes"
        }
      ],
      "name": "safeBatchTransferFrom",
      "outputs": [],
      "stateMutability": "nonpayable",
      "type": "function"
    },
    {
      "inputs": [
        {
          "internalType": "address",
          "name": "from",
          "type": "address"
        },
        {
          "internalType": "address",
          "name": "to",
          "type": "address"
        },
        {
          "internalType": "uint256",
          "name": "id",
          "type": "uint256"
        },
        {
          "internalType": "uint256",
          "name": "amount",
          "type": "uint256"
        },
        {
          "internalType": "bytes",
          "name": "data",
          "type": "bytes"
        }
      ],
      "name": "safeTransferFrom",
      "outputs": [],
      "stateMutability": "nonpayable",
      "type": "function"
    },
    {
      "inputs": [
        {
          "internalType": "address",
          "name": "operator",
          "type": "address"
        },
        {
          "internalType": "bool",
          "name": "approved",
          "type": "bool"
        }
      ],
      "name": "setApprovalForAll",
      "outputs": [],
      "stateMutability": "nonpayable",
      "type": "function"
    },
    {
      "inputs": [
        {
          "internalType": "bytes4",
          "name": "interfaceId",
          "type": "bytes4"
        }
      ],
      "name": "supportsInterface",
      "outputs": [
        {
          "internalType": "bool",
          "name": "",
          "type": "bool"
        }
      ],
      "stateMutability": "view",
      "type": "function",
      "constant": true
    },
    {
      "inputs": [
        {
          "internalType": "uint256",
          "name": "",
          "type": "uint256"
        }
      ],
      "name": "uri",
      "outputs": [
        {
          "internalType": "string",
          "name": "",
          "type": "string"
        }
      ],
      "stateMutability": "view",
      "type": "function",
      "constant": true
    },
    {
      "inputs": [
        {
          "internalType": "address",
          "name": "solsMarketplace",
          "type": "address"
        }
      ],
      "name": "setSolsMarketplaceToNFT",
      "outputs": [],
      "stateMutability": "nonpayable",
      "type": "function"
    },
    {
      "inputs": [
        {
          "internalType": "address",
          "name": "_from",
          "type": "address"
        },
        {
          "internalType": "uint256",
          "name": "_id",
          "type": "uint256"
        },
        {
          "internalType": "uint256",
          "name": "_amount",
          "type": "uint256"
        }
      ],
      "name": "mint",
      "outputs": [],
      "stateMutability": "nonpayable",
      "type": "function"
    },
    {
      "inputs": [
        {
          "internalType": "uint256",
          "name": "nft_id",
          "type": "uint256"
        },
        {
          "internalType": "address",
          "name": "from",
          "type": "address"
        },
        {
          "internalType": "address",
          "name": "to",
          "type": "address"
        },
        {
          "internalType": "uint256",
          "name": "amount",
          "type": "uint256"
        }
      ],
      "name": "transfer",
      "outputs": [],
      "stateMutability": "nonpayable",
      "type": "function"
    },
    {
      "inputs": [
        {
          "internalType": "address",
          "name": "_owner",
          "type": "address"
        },
        {
          "internalType": "uint256",
          "name": "nft_id",
          "type": "uint256"
        }
      ],
      "name": "_balanceOf",
      "outputs": [
        {
          "internalType": "uint256",
          "name": "",
          "type": "uint256"
        }
      ],
      "stateMutability": "view",
      "type": "function",
      "constant": true
    }
  ],
  "bytecode": "0x60806040526000600360006101000a81548173ffffffffffffffffffffffffffffffffffffffff021916908373ffffffffffffffffffffffffffffffffffffffff1602179055503480156200005357600080fd5b506040518060200160405280600081525062000075816200007c60201b60201c565b50620001ad565b80600290805190602001906200009492919062000098565b5050565b828054620000a69062000177565b90600052602060002090601f016020900481019282620000ca576000855562000116565b82601f10620000e557805160ff191683800117855562000116565b8280016001018555821562000116579182015b8281111562000115578251825591602001919060010190620000f8565b5b50905062000125919062000129565b5090565b5b80821115620001445760008160009055506001016200012a565b5090565b7f4e487b7100000000000000000000000000000000000000000000000000000000600052602260045260246000fd5b600060028204905060018216806200019057607f821691505b60208210811415620001a757620001a662000148565b5b50919050565b612ccc80620001bd6000396000f3fe608060405234801561001057600080fd5b50600436106100b35760003560e01c80634901b35b116100715780634901b35b1461019c5780634e1273f4146101b8578063787d2f30146101e8578063a22cb46514610218578063e985e9c514610234578063f242432a14610264576100b3565b8062fdd58e146100b857806301ffc9a7146100e85780630e89341c14610118578063156e29f6146101485780632eb2c2d61461016457806336cd52a614610180575b600080fd5b6100d260048036038101906100cd9190611823565b610280565b6040516100df9190611872565b60405180910390f35b61010260048036038101906100fd91906118e5565b610349565b60405161010f919061192d565b60405180910390f35b610132600480360381019061012d9190611948565b61042b565b60405161013f9190611a0e565b60405180910390f35b610162600480360381019061015d9190611a30565b6104bf565b005b61017e60048036038101906101799190611c80565b61056f565b005b61019a60048036038101906101959190611d4f565b610610565b005b6101b660048036038101906101b19190611db6565b6106ce565b005b6101d260048036038101906101cd9190611ea6565b6107a3565b6040516101df9190611fdc565b60405180910390f35b61020260048036038101906101fd9190611823565b6108bc565b60405161020f9190611872565b60405180910390f35b610232600480360381019061022d919061202a565b6108d0565b005b61024e6004803603810190610249919061206a565b6108e6565b60405161025b919061192d565b60405180910390f35b61027e600480360381019061027991906120aa565b61097a565b005b60008073ffffffffffffffffffffffffffffffffffffffff168373ffffffffffffffffffffffffffffffffffffffff1614156102f1576040517f08c379a00000000000000000000000000000000000000000000000000000000081526004016102e8906121b3565b60405180910390fd5b60008083815260200190815260200160002060008473ffffffffffffffffffffffffffffffffffffffff1673ffffffffffffffffffffffffffffffffffffffff16815260200190815260200160002054905092915050565b60007fd9b67a26000000000000000000000000000000000000000000000000000000007bffffffffffffffffffffffffffffffffffffffffffffffffffffffff1916827bffffffffffffffffffffffffffffffffffffffffffffffffffffffff1916148061041457507f0e89341c000000000000000000000000000000000000000000000000000000007bffffffffffffffffffffffffffffffffffffffffffffffffffffffff1916827bffffffffffffffffffffffffffffffffffffffffffffffffffffffff1916145b80610424575061042382610a1b565b5b9050919050565b60606002805461043a90612202565b80601f016020809104026020016040519081016040528092919081815260200182805461046690612202565b80156104b35780601f10610488576101008083540402835291602001916104b3565b820191906000526020600020905b81548152906001019060200180831161049657829003601f168201915b50505050509050919050565b3373ffffffffffffffffffffffffffffffffffffffff16600360009054906101000a900473ffffffffffffffffffffffffffffffffffffffff1673ffffffffffffffffffffffffffffffffffffffff161461054f576040517f08c379a0000000000000000000000000000000000000000000000000000000008152600401610546906122a6565b60405180910390fd5b61056a83838360405180602001604052806000815250610a85565b505050565b610577610c1b565b73ffffffffffffffffffffffffffffffffffffffff168573ffffffffffffffffffffffffffffffffffffffff1614806105bd57506105bc856105b7610c1b565b6108e6565b5b6105fc576040517f08c379a00000000000000000000000000000000000000000000000000000000081526004016105f390612338565b60405180910390fd5b6106098585858585610c23565b5050505050565b3373ffffffffffffffffffffffffffffffffffffffff16600360009054906101000a900473ffffffffffffffffffffffffffffffffffffffff1673ffffffffffffffffffffffffffffffffffffffff16146106a0576040517f08c379a0000000000000000000000000000000000000000000000000000000008152600401610697906122a6565b60405180910390fd5b6106ac83336001610f37565b6106c8838386846040518060200160405280600081525061097a565b50505050565b600073ffffffffffffffffffffffffffffffffffffffff16600360009054906101000a900473ffffffffffffffffffffffffffffffffffffffff1673ffffffffffffffffffffffffffffffffffffffff161461075f576040517f08c379a0000000000000000000000000000000000000000000000000000000008152600401610756906123ca565b60405180910390fd5b80600360006101000a81548173ffffffffffffffffffffffffffffffffffffffff021916908373ffffffffffffffffffffffffffffffffffffffff16021790555050565b606081518351146107e9576040517f08c379a00000000000000000000000000000000000000000000000000000000081526004016107e09061245c565b60405180910390fd5b6000835167ffffffffffffffff81111561080657610805611a88565b5b6040519080825280602002602001820160405280156108345781602001602082028036833780820191505090505b50905060005b84518110156108b1576108818582815181106108595761085861247c565b5b60200260200101518583815181106108745761087361247c565b5b6020026020010151610280565b8282815181106108945761089361247c565b5b602002602001018181525050806108aa906124da565b905061083a565b508091505092915050565b60006108c88383610280565b905092915050565b6108e26108db610c1b565b8383610f37565b5050565b6000600160008473ffffffffffffffffffffffffffffffffffffffff1673ffffffffffffffffffffffffffffffffffffffff16815260200190815260200160002060008373ffffffffffffffffffffffffffffffffffffffff1673ffffffffffffffffffffffffffffffffffffffff16815260200190815260200160002060009054906101000a900460ff16905092915050565b610982610c1b565b73ffffffffffffffffffffffffffffffffffffffff168573ffffffffffffffffffffffffffffffffffffffff1614806109c857506109c7856109c2610c1b565b6108e6565b5b610a07576040517f08c379a00000000000000000000000000000000000000000000000000000000081526004016109fe90612595565b60405180910390fd5b610a1485858585856110a4565b5050505050565b60007f01ffc9a7000000000000000000000000000000000000000000000000000000007bffffffffffffffffffffffffffffffffffffffffffffffffffffffff1916827bffffffffffffffffffffffffffffffffffffffffffffffffffffffff1916149050919050565b600073ffffffffffffffffffffffffffffffffffffffff168473ffffffffffffffffffffffffffffffffffffffff161415610af5576040517f08c379a0000000000000000000000000000000000000000000000000000000008152600401610aec90612627565b60405180910390fd5b6000610aff610c1b565b9050610b2081600087610b1188611326565b610b1a88611326565b876113a0565b8260008086815260200190815260200160002060008773ffffffffffffffffffffffffffffffffffffffff1673ffffffffffffffffffffffffffffffffffffffff1681526020019081526020016000206000828254610b7f9190612647565b925050819055508473ffffffffffffffffffffffffffffffffffffffff16600073ffffffffffffffffffffffffffffffffffffffff168273ffffffffffffffffffffffffffffffffffffffff167fc3d58168c5ae7397731d063d5bbf3d657854427343f4c083240f7aacaa2d0f628787604051610bfd92919061269d565b60405180910390a4610c14816000878787876113a8565b5050505050565b600033905090565b8151835114610c67576040517f08c379a0000000000000000000000000000000000000000000000000000000008152600401610c5e90612738565b60405180910390fd5b600073ffffffffffffffffffffffffffffffffffffffff168473ffffffffffffffffffffffffffffffffffffffff161415610cd7576040517f08c379a0000000000000000000000000000000000000000000000000000000008152600401610cce906127ca565b60405180910390fd5b6000610ce1610c1b565b9050610cf18187878787876113a0565b60005b8451811015610ea2576000858281518110610d1257610d1161247c565b5b602002602001015190506000858381518110610d3157610d3061247c565b5b60200260200101519050600080600084815260200190815260200160002060008b73ffffffffffffffffffffffffffffffffffffffff1673ffffffffffffffffffffffffffffffffffffffff16815260200190815260200160002054905081811015610dd2576040517f08c379a0000000000000000000000000000000000000000000000000000000008152600401610dc99061285c565b60405180910390fd5b81810360008085815260200190815260200160002060008c73ffffffffffffffffffffffffffffffffffffffff1673ffffffffffffffffffffffffffffffffffffffff168152602001908152602001600020819055508160008085815260200190815260200160002060008b73ffffffffffffffffffffffffffffffffffffffff1673ffffffffffffffffffffffffffffffffffffffff1681526020019081526020016000206000828254610e879190612647565b9250508190555050505080610e9b906124da565b9050610cf4565b508473ffffffffffffffffffffffffffffffffffffffff168673ffffffffffffffffffffffffffffffffffffffff168273ffffffffffffffffffffffffffffffffffffffff167f4a39dc06d4c0dbc64b70af90fd698a233a518aa5d07e595d983b8c0526c8f7fb8787604051610f1992919061287c565b60405180910390a4610f2f818787878787611580565b505050505050565b8173ffffffffffffffffffffffffffffffffffffffff168373ffffffffffffffffffffffffffffffffffffffff161415610fa6576040517f08c379a0000000000000000000000000000000000000000000000000000000008152600401610f9d90612925565b60405180910390fd5b80600160008573ffffffffffffffffffffffffffffffffffffffff1673ffffffffffffffffffffffffffffffffffffffff16815260200190815260200160002060008473ffffffffffffffffffffffffffffffffffffffff1673ffffffffffffffffffffffffffffffffffffffff16815260200190815260200160002060006101000a81548160ff0219169083151502179055508173ffffffffffffffffffffffffffffffffffffffff168373ffffffffffffffffffffffffffffffffffffffff167f17307eab39ab6107e8899845ad3d59bd9653f200f220920489ca2b5937696c3183604051611097919061192d565b60405180910390a3505050565b600073ffffffffffffffffffffffffffffffffffffffff168473ffffffffffffffffffffffffffffffffffffffff161415611114576040517f08c379a000000000000000000000000000000000000000000000000000000000815260040161110b906127ca565b60405180910390fd5b600061111e610c1b565b905061113e81878761112f88611326565b61113888611326565b876113a0565b600080600086815260200190815260200160002060008873ffffffffffffffffffffffffffffffffffffffff1673ffffffffffffffffffffffffffffffffffffffff168152602001908152602001600020549050838110156111d5576040517f08c379a00000000000000000000000000000000000000000000000000000000081526004016111cc9061285c565b60405180910390fd5b83810360008087815260200190815260200160002060008973ffffffffffffffffffffffffffffffffffffffff1673ffffffffffffffffffffffffffffffffffffffff168152602001908152602001600020819055508360008087815260200190815260200160002060008873ffffffffffffffffffffffffffffffffffffffff1673ffffffffffffffffffffffffffffffffffffffff168152602001908152602001600020600082825461128a9190612647565b925050819055508573ffffffffffffffffffffffffffffffffffffffff168773ffffffffffffffffffffffffffffffffffffffff168373ffffffffffffffffffffffffffffffffffffffff167fc3d58168c5ae7397731d063d5bbf3d657854427343f4c083240f7aacaa2d0f62888860405161130792919061269d565b60405180910390a461131d8288888888886113a8565b50505050505050565b60606000600167ffffffffffffffff81111561134557611344611a88565b5b6040519080825280602002602001820160405280156113735781602001602082028036833780820191505090505b509050828160008151811061138b5761138a61247c565b5b60200260200101818152505080915050919050565b505050505050565b6113c78473ffffffffffffffffffffffffffffffffffffffff16611758565b15611578578373ffffffffffffffffffffffffffffffffffffffff1663f23a6e6187878686866040518663ffffffff1660e01b815260040161140d9594939291906129a9565b6020604051808303816000875af192505050801561144957506040513d601f19601f820116820180604052508101906114469190612a18565b60015b6114ef57611455612a52565b806308c379a014156114b2575061146a612a74565b8061147557506114b4565b806040517f08c379a00000000000000000000000000000000000000000000000000000000081526004016114a99190611a0e565b60405180910390fd5b505b6040517f08c379a00000000000000000000000000000000000000000000000000000000081526004016114e690612b7c565b60405180910390fd5b63f23a6e6160e01b7bffffffffffffffffffffffffffffffffffffffffffffffffffffffff1916817bffffffffffffffffffffffffffffffffffffffffffffffffffffffff191614611576576040517f08c379a000000000000000000000000000000000000000000000000000000000815260040161156d90612c0e565b60405180910390fd5b505b505050505050565b61159f8473ffffffffffffffffffffffffffffffffffffffff16611758565b15611750578373ffffffffffffffffffffffffffffffffffffffff1663bc197c8187878686866040518663ffffffff1660e01b81526004016115e5959493929190612c2e565b6020604051808303816000875af192505050801561162157506040513d601f19601f8201168201806040525081019061161e9190612a18565b60015b6116c75761162d612a52565b806308c379a0141561168a5750611642612a74565b8061164d575061168c565b806040517f08c379a00000000000000000000000000000000000000000000000000000000081526004016116819190611a0e565b60405180910390fd5b505b6040517f08c379a00000000000000000000000000000000000000000000000000000000081526004016116be90612b7c565b60405180910390fd5b63bc197c8160e01b7bffffffffffffffffffffffffffffffffffffffffffffffffffffffff1916817bffffffffffffffffffffffffffffffffffffffffffffffffffffffff19161461174e576040517f08c379a000000000000000000000000000000000000000000000000000000000815260040161174590612c0e565b60405180910390fd5b505b505050505050565b6000808273ffffffffffffffffffffffffffffffffffffffff163b119050919050565b6000604051905090565b600080fd5b600080fd5b600073ffffffffffffffffffffffffffffffffffffffff82169050919050565b60006117ba8261178f565b9050919050565b6117ca816117af565b81146117d557600080fd5b50565b6000813590506117e7816117c1565b92915050565b6000819050919050565b611800816117ed565b811461180b57600080fd5b50565b60008135905061181d816117f7565b92915050565b6000806040838503121561183a57611839611785565b5b6000611848858286016117d8565b92505060206118598582860161180e565b9150509250929050565b61186c816117ed565b82525050565b60006020820190506118876000830184611863565b92915050565b60007fffffffff0000000000000000000000000000000000000000000000000000000082169050919050565b6118c28161188d565b81146118cd57600080fd5b50565b6000813590506118df816118b9565b92915050565b6000602082840312156118fb576118fa611785565b5b6000611909848285016118d0565b91505092915050565b60008115159050919050565b61192781611912565b82525050565b6000602082019050611942600083018461191e565b92915050565b60006020828403121561195e5761195d611785565b5b600061196c8482850161180e565b91505092915050565b600081519050919050565b600082825260208201905092915050565b60005b838110156119af578082015181840152602081019050611994565b838111156119be576000848401525b50505050565b6000601f19601f8301169050919050565b60006119e082611975565b6119ea8185611980565b93506119fa818560208601611991565b611a03816119c4565b840191505092915050565b60006020820190508181036000830152611a2881846119d5565b905092915050565b600080600060608486031215611a4957611a48611785565b5b6000611a57868287016117d8565b9350506020611a688682870161180e565b9250506040611a798682870161180e565b9150509250925092565b600080fd5b7f4e487b7100000000000000000000000000000000000000000000000000000000600052604160045260246000fd5b611ac0826119c4565b810181811067ffffffffffffffff82111715611adf57611ade611a88565b5b80604052505050565b6000611af261177b565b9050611afe8282611ab7565b919050565b600067ffffffffffffffff821115611b1e57611b1d611a88565b5b602082029050602081019050919050565b600080fd5b6000611b47611b4284611b03565b611ae8565b90508083825260208201905060208402830185811115611b6a57611b69611b2f565b5b835b81811015611b935780611b7f888261180e565b845260208401935050602081019050611b6c565b5050509392505050565b600082601f830112611bb257611bb1611a83565b5b8135611bc2848260208601611b34565b91505092915050565b600080fd5b600067ffffffffffffffff821115611beb57611bea611a88565b5b611bf4826119c4565b9050602081019050919050565b82818337600083830152505050565b6000611c23611c1e84611bd0565b611ae8565b905082815260208101848484011115611c3f57611c3e611bcb565b5b611c4a848285611c01565b509392505050565b600082601f830112611c6757611c66611a83565b5b8135611c77848260208601611c10565b91505092915050565b600080600080600060a08688031215611c9c57611c9b611785565b5b6000611caa888289016117d8565b9550506020611cbb888289016117d8565b945050604086013567ffffffffffffffff811115611cdc57611cdb61178a565b5b611ce888828901611b9d565b935050606086013567ffffffffffffffff811115611d0957611d0861178a565b5b611d1588828901611b9d565b925050608086013567ffffffffffffffff811115611d3657611d3561178a565b5b611d4288828901611c52565b9150509295509295909350565b60008060008060808587031215611d6957611d68611785565b5b6000611d778782880161180e565b9450506020611d88878288016117d8565b9350506040611d99878288016117d8565b9250506060611daa8782880161180e565b91505092959194509250565b600060208284031215611dcc57611dcb611785565b5b6000611dda848285016117d8565b91505092915050565b600067ffffffffffffffff821115611dfe57611dfd611a88565b5b602082029050602081019050919050565b6000611e22611e1d84611de3565b611ae8565b90508083825260208201905060208402830185811115611e4557611e44611b2f565b5b835b81811015611e6e5780611e5a88826117d8565b845260208401935050602081019050611e47565b5050509392505050565b600082601f830112611e8d57611e8c611a83565b5b8135611e9d848260208601611e0f565b91505092915050565b60008060408385031215611ebd57611ebc611785565b5b600083013567ffffffffffffffff811115611edb57611eda61178a565b5b611ee785828601611e78565b925050602083013567ffffffffffffffff811115611f0857611f0761178a565b5b611f1485828601611b9d565b9150509250929050565b600081519050919050565b600082825260208201905092915050565b6000819050602082019050919050565b611f53816117ed565b82525050565b6000611f658383611f4a565b60208301905092915050565b6000602082019050919050565b6000611f8982611f1e565b611f938185611f29565b9350611f9e83611f3a565b8060005b83811015611fcf578151611fb68882611f59565b9750611fc183611f71565b925050600181019050611fa2565b5085935050505092915050565b60006020820190508181036000830152611ff68184611f7e565b905092915050565b61200781611912565b811461201257600080fd5b50565b60008135905061202481611ffe565b92915050565b6000806040838503121561204157612040611785565b5b600061204f858286016117d8565b925050602061206085828601612015565b9150509250929050565b6000806040838503121561208157612080611785565b5b600061208f858286016117d8565b92505060206120a0858286016117d8565b9150509250929050565b600080600080600060a086880312156120c6576120c5611785565b5b60006120d4888289016117d8565b95505060206120e5888289016117d8565b94505060406120f68882890161180e565b93505060606121078882890161180e565b925050608086013567ffffffffffffffff8111156121285761212761178a565b5b61213488828901611c52565b9150509295509295909350565b7f455243313135353a2062616c616e636520717565727920666f7220746865207a60008201527f65726f2061646472657373000000000000000000000000000000000000000000602082015250565b600061219d602b83611980565b91506121a882612141565b604082019050919050565b600060208201905081810360008301526121cc81612190565b9050919050565b7f4e487b7100000000000000000000000000000000000000000000000000000000600052602260045260246000fd5b6000600282049050600182168061221a57607f821691505b6020821081141561222e5761222d6121d3565b5b50919050565b7f697343616c6c65644d61726b6574706c6163653a20796f752063616e2774206360008201527f616c6c20746869732066756e6374696f6e000000000000000000000000000000602082015250565b6000612290603183611980565b915061229b82612234565b604082019050919050565b600060208201905081810360008301526122bf81612283565b9050919050565b7f455243313135353a207472616e736665722063616c6c6572206973206e6f742060008201527f6f776e6572206e6f7220617070726f7665640000000000000000000000000000602082015250565b6000612322603283611980565b915061232d826122c6565b604082019050919050565b6000602082019050818103600083015261235181612315565b9050919050565b7f534f4c534e465420436f6e74726163743a20446f6e277420617474656d70207460008201527f6f206368616e6765206d61726b6574706c616365206164647265737321000000602082015250565b60006123b4603d83611980565b91506123bf82612358565b604082019050919050565b600060208201905081810360008301526123e3816123a7565b9050919050565b7f455243313135353a206163636f756e747320616e6420696473206c656e67746860008201527f206d69736d617463680000000000000000000000000000000000000000000000602082015250565b6000612446602983611980565b9150612451826123ea565b604082019050919050565b6000602082019050818103600083015261247581612439565b9050919050565b7f4e487b7100000000000000000000000000000000000000000000000000000000600052603260045260246000fd5b7f4e487b7100000000000000000000000000000000000000000000000000000000600052601160045260246000fd5b60006124e5826117ed565b91507fffffffffffffffffffffffffffffffffffffffffffffffffffffffffffffffff821415612518576125176124ab565b5b600182019050919050565b7f455243313135353a2063616c6c6572206973206e6f74206f776e6572206e6f7260008201527f20617070726f7665640000000000000000000000000000000000000000000000602082015250565b600061257f602983611980565b915061258a82612523565b604082019050919050565b600060208201905081810360008301526125ae81612572565b9050919050565b7f455243313135353a206d696e7420746f20746865207a65726f2061646472657360008201527f7300000000000000000000000000000000000000000000000000000000000000602082015250565b6000612611602183611980565b915061261c826125b5565b604082019050919050565b6000602082019050818103600083015261264081612604565b9050919050565b6000612652826117ed565b915061265d836117ed565b9250827fffffffffffffffffffffffffffffffffffffffffffffffffffffffffffffffff03821115612692576126916124ab565b5b828201905092915050565b60006040820190506126b26000830185611863565b6126bf6020830184611863565b9392505050565b7f455243313135353a2069647320616e6420616d6f756e7473206c656e6774682060008201527f6d69736d61746368000000000000000000000000000000000000000000000000602082015250565b6000612722602883611980565b915061272d826126c6565b604082019050919050565b6000602082019050818103600083015261275181612715565b9050919050565b7f455243313135353a207472616e7366657220746f20746865207a65726f20616460008201527f6472657373000000000000000000000000000000000000000000000000000000602082015250565b60006127b4602583611980565b91506127bf82612758565b604082019050919050565b600060208201905081810360008301526127e3816127a7565b9050919050565b7f455243313135353a20696e73756666696369656e742062616c616e636520666f60008201527f72207472616e7366657200000000000000000000000000000000000000000000602082015250565b6000612846602a83611980565b9150612851826127ea565b604082019050919050565b6000602082019050818103600083015261287581612839565b9050919050565b600060408201905081810360008301526128968185611f7e565b905081810360208301526128aa8184611f7e565b90509392505050565b7f455243313135353a2073657474696e6720617070726f76616c2073746174757360008201527f20666f722073656c660000000000000000000000000000000000000000000000602082015250565b600061290f602983611980565b915061291a826128b3565b604082019050919050565b6000602082019050818103600083015261293e81612902565b9050919050565b61294e816117af565b82525050565b600081519050919050565b600082825260208201905092915050565b600061297b82612954565b612985818561295f565b9350612995818560208601611991565b61299e816119c4565b840191505092915050565b600060a0820190506129be6000830188612945565b6129cb6020830187612945565b6129d86040830186611863565b6129e56060830185611863565b81810360808301526129f78184612970565b90509695505050505050565b600081519050612a12816118b9565b92915050565b600060208284031215612a2e57612a2d611785565b5b6000612a3c84828501612a03565b91505092915050565b60008160e01c9050919050565b600060033d1115612a715760046000803e612a6e600051612a45565b90505b90565b600060443d1015612a8457612b07565b612a8c61177b565b60043d036004823e80513d602482011167ffffffffffffffff82111715612ab4575050612b07565b808201805167ffffffffffffffff811115612ad25750505050612b07565b80602083010160043d038501811115612aef575050505050612b07565b612afe82602001850186611ab7565b82955050505050505b90565b7f455243313135353a207472616e7366657220746f206e6f6e204552433131353560008201527f526563656976657220696d706c656d656e746572000000000000000000000000602082015250565b6000612b66603483611980565b9150612b7182612b0a565b604082019050919050565b60006020820190508181036000830152612b9581612b59565b9050919050565b7f455243313135353a204552433131353552656365697665722072656a6563746560008201527f6420746f6b656e73000000000000000000000000000000000000000000000000602082015250565b6000612bf8602883611980565b9150612c0382612b9c565b604082019050919050565b60006020820190508181036000830152612c2781612beb565b9050919050565b600060a082019050612c436000830188612945565b612c506020830187612945565b8181036040830152612c628186611f7e565b90508181036060830152612c768185611f7e565b90508181036080830152612c8a8184612970565b9050969550505050505056fea26469706673582212202d354a14d7089b4bc4646793671fac3517cdc0bc7709f3aa3d08e9b9001ecb1a64736f6c634300080b0033",
  "immutableReferences": {},
  "source": "/// SPDX-License-Identifier: MIT\r\npragma solidity >=0.4.22 <0.9.0;\r\n\r\nimport \"@openzeppelin/contracts/token/ERC1155/ERC1155.sol\";\r\nimport \"@openzeppelin/contracts/utils/Counters.sol\";\r\n\r\ncontract SOLSNFT is ERC1155 {\r\n\r\n    address private _solsMarketplace = address(0);\r\n\r\n    constructor() ERC1155(\"\") {\r\n      \r\n    }\r\n\r\n    function setSolsMarketplaceToNFT(address solsMarketplace) external {\r\n        require(_solsMarketplace ==  address(0), \"SOLSNFT Contract: Don't attemp to change marketplace address!\") ;\r\n\r\n        _solsMarketplace = solsMarketplace ;\r\n    }\r\n\r\n    function mint(address _from , uint256 _id, uint256 _amount) external isCalledMarketplace {\r\n        _mint(_from, _id, _amount, '');\r\n    }\r\n    function transfer(uint256 nft_id, address from, address to, uint256 amount) external isCalledMarketplace {\r\n        _setApprovalForAll(from, msg.sender , true); // allow that <msg.sender> can transfer <from>'s nft. \r\n        // msg.sender is marketplace contract\r\n        safeTransferFrom(from, to, nft_id, amount, '');\r\n    }\r\n\r\n    function _balanceOf(address _owner, uint256 nft_id ) external view returns(uint256) {\r\n        return balanceOf(_owner, nft_id);\r\n    }\r\n\r\n    modifier isCalledMarketplace() {\r\n        require(_solsMarketplace == msg.sender, \"isCalledMarketplace: you can't call this function\") ;\r\n        _;\r\n    }\r\n   \r\n}",
  "sourcePath": "E:\\Truffle-Ganache-NFT-Martkeplace\\nft-truffle-contract\\contracts\\SOLSNFT.sol",
  "compiler": {
    "name": "solc",
    "version": "0.8.11+commit.d7f03943.Emscripten.clang"
  },
  "schemaVersion": "3.4.4",
  "updatedAt": "2022-06-10T19:57:20.427Z",
  "networkType": "ethereum",
  "devdoc": {
    "kind": "dev",
    "methods": {
      "balanceOf(address,uint256)": {
        "details": "See {IERC1155-balanceOf}. Requirements: - `account` cannot be the zero address."
      },
      "balanceOfBatch(address[],uint256[])": {
        "details": "See {IERC1155-balanceOfBatch}. Requirements: - `accounts` and `ids` must have the same length."
      },
      "isApprovedForAll(address,address)": {
        "details": "See {IERC1155-isApprovedForAll}."
      },
      "safeBatchTransferFrom(address,address,uint256[],uint256[],bytes)": {
        "details": "See {IERC1155-safeBatchTransferFrom}."
      },
      "safeTransferFrom(address,address,uint256,uint256,bytes)": {
        "details": "See {IERC1155-safeTransferFrom}."
      },
      "setApprovalForAll(address,bool)": {
        "details": "See {IERC1155-setApprovalForAll}."
      },
      "supportsInterface(bytes4)": {
        "details": "See {IERC165-supportsInterface}."
      },
      "uri(uint256)": {
        "details": "See {IERC1155MetadataURI-uri}. This implementation returns the same URI for *all* token types. It relies on the token type ID substitution mechanism https://eips.ethereum.org/EIPS/eip-1155#metadata[defined in the EIP]. Clients calling this function must replace the `\\{id\\}` substring with the actual token type ID."
      }
    },
    "version": 1
  },
  "userdoc": {
    "kind": "user",
    "methods": {},
    "version": 1
  }
}